{
    "_format": "hh-sol-artifact-1",
    "contractName": "WheelOfFortune",
    "sourceName": "contracts/WheelOfFortune/WheelOfFortune.sol",
    "abi": [
        {
            "inputs": [],
            "stateMutability": "nonpayable",
            "type": "constructor"
        },
        {
            "anonymous": false,
            "inputs": [
                {
                    "indexed": true,
                    "internalType": "address",
                    "name": "user",
                    "type": "address"
                },
                {
                    "indexed": false,
                    "internalType": "uint256",
                    "name": "amount",
                    "type": "uint256"
                }
            ],
            "name": "BetPlaced",
            "type": "event"
        },
        {
            "anonymous": false,
            "inputs": [
                {
                    "indexed": true,
                    "internalType": "address",
                    "name": "user",
                    "type": "address"
                },
                {
                    "indexed": false,
                    "internalType": "uint256",
                    "name": "amount",
                    "type": "uint256"
                }
            ],
            "name": "Deposit",
            "type": "event"
        },
        {
            "anonymous": false,
            "inputs": [
                {
                    "indexed": false,
                    "internalType": "uint256",
                    "name": "startAt",
                    "type": "uint256"
                }
            ],
            "name": "GameFinished",
            "type": "event"
        },
        {
            "anonymous": false,
            "inputs": [
                {
                    "indexed": true,
                    "internalType": "address",
                    "name": "winner",
                    "type": "address"
                },
                {
                    "indexed": false,
                    "internalType": "uint256",
                    "name": "totalAmount",
                    "type": "uint256"
                },
                {
                    "indexed": false,
                    "internalType": "address[]",
                    "name": "participants",
                    "type": "address[]"
                }
            ],
            "name": "GameResult",
            "type": "event"
        },
        {
            "anonymous": false,
            "inputs": [
                {
                    "indexed": false,
                    "internalType": "uint256",
                    "name": "endsAt",
                    "type": "uint256"
                }
            ],
            "name": "GameStarted",
            "type": "event"
        },
        {
            "anonymous": false,
            "inputs": [
                {
                    "indexed": false,
                    "internalType": "uint256",
                    "name": "newTotalPot",
                    "type": "uint256"
                },
                {
                    "indexed": false,
                    "internalType": "uint256",
                    "name": "participantCount",
                    "type": "uint256"
                },
                {
                    "indexed": false,
                    "internalType": "address[]",
                    "name": "participants",
                    "type": "address[]"
                },
                {
                    "indexed": false,
                    "internalType": "uint256[]",
                    "name": "bets",
                    "type": "uint256[]"
                }
            ],
            "name": "TotalUpdate",
            "type": "event"
        },
        {
            "anonymous": false,
            "inputs": [
                {
                    "indexed": true,
                    "internalType": "address",
                    "name": "user",
                    "type": "address"
                },
                {
                    "indexed": false,
                    "internalType": "uint256",
                    "name": "amount",
                    "type": "uint256"
                }
            ],
            "name": "Withdraw",
            "type": "event"
        },
        {
            "anonymous": false,
            "inputs": [],
            "name": "WithdrawBet",
            "type": "event"
        },
        {
            "inputs": [
                {
                    "internalType": "uint256",
                    "name": "",
                    "type": "uint256"
                }
            ],
            "name": "GameSessions",
            "outputs": [
                {
                    "internalType": "uint256",
                    "name": "totalPot",
                    "type": "uint256"
                },
                {
                    "internalType": "address",
                    "name": "winner",
                    "type": "address"
                },
                {
                    "internalType": "uint256",
                    "name": "endsGameAt",
                    "type": "uint256"
                },
                {
                    "internalType": "uint256",
                    "name": "nextGameStartAt",
                    "type": "uint256"
                },
                {
                    "internalType": "bool",
                    "name": "start",
                    "type": "bool"
                },
                {
                    "internalType": "bool",
                    "name": "stopped",
                    "type": "bool"
                }
            ],
            "stateMutability": "view",
            "type": "function"
        },
        {
            "inputs": [
                {
                    "internalType": "address",
                    "name": "",
                    "type": "address"
                }
            ],
            "name": "balance",
            "outputs": [
                {
                    "internalType": "uint256",
                    "name": "",
                    "type": "uint256"
                }
            ],
            "stateMutability": "view",
            "type": "function"
        },
        {
            "inputs": [],
            "name": "createGameSession",
            "outputs": [],
            "stateMutability": "nonpayable",
            "type": "function"
        },
        {
            "inputs": [],
            "name": "deposit",
            "outputs": [],
            "stateMutability": "payable",
            "type": "function"
        },
        {
            "inputs": [],
            "name": "getBalance",
            "outputs": [
                {
                    "internalType": "uint256",
                    "name": "",
                    "type": "uint256"
                }
            ],
            "stateMutability": "view",
            "type": "function"
        },
        {
            "inputs": [],
            "name": "getParcticipants",
            "outputs": [
                {
                    "internalType": "address[]",
                    "name": "",
                    "type": "address[]"
                }
            ],
            "stateMutability": "view",
            "type": "function"
        },
        {
            "inputs": [],
            "name": "getTotalPot",
            "outputs": [
                {
                    "internalType": "uint256",
                    "name": "",
                    "type": "uint256"
                }
            ],
            "stateMutability": "view",
            "type": "function"
        },
        {
            "inputs": [
                {
                    "internalType": "uint256",
                    "name": "amount",
                    "type": "uint256"
                }
            ],
            "name": "placeBet",
            "outputs": [],
            "stateMutability": "nonpayable",
            "type": "function"
        },
        {
            "inputs": [],
            "name": "spinWheel",
            "outputs": [],
            "stateMutability": "nonpayable",
            "type": "function"
        },
        {
            "inputs": [
                {
                    "internalType": "uint256",
                    "name": "amount",
                    "type": "uint256"
                }
            ],
            "name": "withdraw",
            "outputs": [],
            "stateMutability": "nonpayable",
            "type": "function"
        },
        {
            "inputs": [
                {
                    "internalType": "uint256",
                    "name": "amount",
                    "type": "uint256"
                }
            ],
            "name": "withdrawBet",
            "outputs": [],
            "stateMutability": "nonpayable",
            "type": "function"
        }
    ],
    "bytecode": "0x60806040526001600060146101000a81548160ff0219169083151502179055503480156200002c57600080fd5b50336000806101000a81548173ffffffffffffffffffffffffffffffffffffffff021916908373ffffffffffffffffffffffffffffffffffffffff1602179055506200007d6200008360201b60201c565b620006a3565b60008054906101000a900473ffffffffffffffffffffffffffffffffffffffff1673ffffffffffffffffffffffffffffffffffffffff163373ffffffffffffffffffffffffffffffffffffffff161462000114576040517f08c379a00000000000000000000000000000000000000000000000000000000081526004016200010b9062000310565b60405180910390fd5b600060149054906101000a900460ff1662000166576040517f08c379a00000000000000000000000000000000000000000000000000000000081526004016200015d9062000382565b60405180910390fd5b60008060146101000a81548160ff0219169083151502179055506000600260018160018154018082558091505003906000526020600020906008020190506000816005018190555060008160070160006101000a81548160ff02191690831515021790555060008160070160016101000a81548160ff0219169083151502179055506000816003018190555060008160040160006101000a81548173ffffffffffffffffffffffffffffffffffffffff021916908373ffffffffffffffffffffffffffffffffffffffff1602179055507fa9b16ee27e98bfd24c40b4289407e13636636ebca0ece66df90cc6d126b471b68160030154826000018054905083600001846001016040516200027e949392919062000648565b60405180910390a150565b600082825260208201905092915050565b7f4f6e6c7920746865206f776e65722063616e2063616c6c20746869732066756e60008201527f6374696f6e000000000000000000000000000000000000000000000000000000602082015250565b6000620002f860258362000289565b915062000305826200029a565b604082019050919050565b600060208201905081810360008301526200032b81620002e9565b9050919050565b7f47616d652073617373696f6e206e6f74206f7665720000000000000000000000600082015250565b60006200036a60158362000289565b9150620003778262000332565b602082019050919050565b600060208201905081810360008301526200039d816200035b565b9050919050565b6000819050919050565b620003b981620003a4565b82525050565b600081549050919050565b600082825260208201905092915050565b60008190508160005260206000209050919050565b600073ffffffffffffffffffffffffffffffffffffffff82169050919050565b60006200041d82620003f0565b9050919050565b6200042f8162000410565b82525050565b600062000443838362000424565b60208301905092915050565b60008160001c9050919050565b600073ffffffffffffffffffffffffffffffffffffffff82169050919050565b6000620004936200048d836200044f565b6200045c565b9050919050565b6000620004a882546200047c565b9050919050565b6000600182019050919050565b6000620004c982620003bf565b620004d58185620003ca565b9350620004e283620003db565b8060005b838110156200052257620004fa826200049a565b62000506888262000435565b97506200051383620004af565b925050600181019050620004e6565b5085935050505092915050565b600081549050919050565b600082825260208201905092915050565b60008190508160005260206000209050919050565b6200056b81620003a4565b82525050565b60006200057f838362000560565b60208301905092915050565b6000819050919050565b6000620005ac620005a6836200044f565b6200058b565b9050919050565b6000620005c1825462000595565b9050919050565b6000600182019050919050565b6000620005e2826200052f565b620005ee81856200053a565b9350620005fb836200054b565b8060005b838110156200063b576200061382620005b3565b6200061f888262000571565b97506200062c83620005c8565b925050600181019050620005ff565b5085935050505092915050565b60006080820190506200065f6000830187620003ae565b6200066e6020830186620003ae565b8181036040830152620006828185620004bc565b90508181036060830152620006988184620005d5565b905095945050505050565b61277480620006b36000396000f3fe60806040526004361061009c5760003560e01c806348a61de41161006457806348a61de4146101605780635c28a4071461018b57806395e6a53c146101a2578063a2b1a2cc146101e4578063d0e30db01461020d578063e3d670d7146102175761009c565b806310fe7c48146100a157806312065fe0146100ca57806315ecef92146100f55780632e1a7d4d1461010c578063480bc31f14610135575b600080fd5b3480156100ad57600080fd5b506100c860048036038101906100c39190611a27565b610254565b005b3480156100d657600080fd5b506100df6107b4565b6040516100ec9190611a63565b60405180910390f35b34801561010157600080fd5b5061010a6107fb565b005b34801561011857600080fd5b50610133600480360381019061012e9190611a27565b610dee565b005b34801561014157600080fd5b5061014a610f5e565b6040516101579190611a63565b60405180910390f35b34801561016c57600080fd5b50610175610fe9565b6040516101829190611b6e565b60405180910390f35b34801561019757600080fd5b506101a06110f9565b005b3480156101ae57600080fd5b506101c960048036038101906101c49190611a27565b6112f7565b6040516101db96959493929190611bba565b60405180910390f35b3480156101f057600080fd5b5061020b60048036038101906102069190611a27565b61137d565b005b6102156118eb565b005b34801561022357600080fd5b5061023e60048036038101906102399190611c47565b6119d4565b60405161024b9190611a63565b60405180910390f35b80600160003373ffffffffffffffffffffffffffffffffffffffff1673ffffffffffffffffffffffffffffffffffffffff1681526020019081526020016000205410156102d6576040517f08c379a00000000000000000000000000000000000000000000000000000000081526004016102cd90611cd1565b60405180910390fd5b60006002805490501161031e576040517f08c379a000000000000000000000000000000000000000000000000000000000815260040161031590611d3d565b60405180910390fd5b6000600260016002805490506103349190611d8c565b8154811061034557610344611dc0565b5b906000526020600020906008020190508060070160019054906101000a900460ff16156103a7576040517f08c379a000000000000000000000000000000000000000000000000000000000815260040161039e90611e3b565b60405180910390fd5b81600160003373ffffffffffffffffffffffffffffffffffffffff1673ffffffffffffffffffffffffffffffffffffffff16815260200190815260200160002060008282546103f69190611d8c565b925050819055506000808260020160003373ffffffffffffffffffffffffffffffffffffffff1673ffffffffffffffffffffffffffffffffffffffff168152602001908152602001600020541480156104ce57506000826000018054905014806104cd57503373ffffffffffffffffffffffffffffffffffffffff168260000160008154811061048957610488611dc0565b5b9060005260206000200160009054906101000a900473ffffffffffffffffffffffffffffffffffffffff1673ffffffffffffffffffffffffffffffffffffffff1614155b5b156105d05781600001339080600181540180825580915050600190039060005260206000200160009091909190916101000a81548173ffffffffffffffffffffffffffffffffffffffff021916908373ffffffffffffffffffffffffffffffffffffffff16021790555081600101839080600181540180825580915050600190039060005260206000200160009091909190915055600182600001805490506105779190611d8c565b90506001816105869190611e5b565b8260020160003373ffffffffffffffffffffffffffffffffffffffff1673ffffffffffffffffffffffffffffffffffffffff16815260200190815260200160002081905550610658565b60018260020160003373ffffffffffffffffffffffffffffffffffffffff1673ffffffffffffffffffffffffffffffffffffffff1681526020019081526020016000205461061e9190611d8c565b90508282600101828154811061063757610636611dc0565b5b9060005260206000200160008282546106509190611e5b565b925050819055505b8282600301600082825461066c9190611e5b565b925050819055503373ffffffffffffffffffffffffffffffffffffffff167f43e08d78302cdf9c94e1ffd293c2a3696139ee41cf3199b6f5eed9c7f6cc6090846040516106b99190611a63565b60405180910390a27fa9b16ee27e98bfd24c40b4289407e13636636ebca0ece66df90cc6d126b471b6826003015483600001805490508460000185600101604051610707949392919061207c565b60405180910390a1600382600001805490501015801561073657508160070160009054906101000a900460ff16155b156107af5760018260070160006101000a81548160ff021916908315150217905550603c63ffffffff164261076b9190611e5b565b82600501819055507f50ad08f58a27f2851d7e3a1b3a6a46b290f2ce677e99642d30ff639721e7779082600501546040516107a69190611a63565b60405180910390a15b505050565b6000600160003373ffffffffffffffffffffffffffffffffffffffff1673ffffffffffffffffffffffffffffffffffffffff16815260200190815260200160002054905090565b60008054906101000a900473ffffffffffffffffffffffffffffffffffffffff1673ffffffffffffffffffffffffffffffffffffffff163373ffffffffffffffffffffffffffffffffffffffff1614610889576040517f08c379a000000000000000000000000000000000000000000000000000000000815260040161088090612141565b60405180910390fd5b6000600280549050116108d1576040517f08c379a00000000000000000000000000000000000000000000000000000000081526004016108c890611d3d565b60405180910390fd5b6000600260016002805490506108e79190611d8c565b815481106108f8576108f7611dc0565b5b90600052602060002090600802019050806005015442101561094f576040517f08c379a0000000000000000000000000000000000000000000000000000000008152600401610946906121ad565b60405180910390fd5b8060070160009054906101000a900460ff166109a0576040517f08c379a000000000000000000000000000000000000000000000000000000000815260040161099790612219565b60405180910390fd5b8060070160019054906101000a900460ff16156109f2576040517f08c379a00000000000000000000000000000000000000000000000000000000081526004016109e990611e3b565b60405180910390fd5b6000816003015411610a39576040517f08c379a0000000000000000000000000000000000000000000000000000000008152600401610a3090612285565b60405180910390fd5b600081600301544442604051602001610a539291906122c6565b6040516020818303038152906040528051906020012060001c610a769190612321565b90506000805b8360000180549050811015610cdf57836001018181548110610aa157610aa0611dc0565b5b906000526020600020015482610ab79190611e5b565b915081831015610cd257836000018181548110610ad757610ad6611dc0565b5b9060005260206000200160009054906101000a900473ffffffffffffffffffffffffffffffffffffffff168460040160006101000a81548173ffffffffffffffffffffffffffffffffffffffff021916908373ffffffffffffffffffffffffffffffffffffffff16021790555060006064600f60ff16866001018481548110610b6357610b62611dc0565b5b90600052602060002001548760030154610b7d9190611d8c565b610b879190612352565b610b919190612394565b905080471015610bd6576040517f08c379a0000000000000000000000000000000000000000000000000000000008152600401610bcd90612437565b60405180910390fd5b60008054906101000a900473ffffffffffffffffffffffffffffffffffffffff1673ffffffffffffffffffffffffffffffffffffffff166108fc829081150290604051600060405180830381858888f19350505050158015610c3c573d6000803e3d6000fd5b506000818660030154610c4f9190611d8c565b905080600160008860040160009054906101000a900473ffffffffffffffffffffffffffffffffffffffff1673ffffffffffffffffffffffffffffffffffffffff1673ffffffffffffffffffffffffffffffffffffffff1681526020019081526020016000206000828254610cc49190611e5b565b925050819055505050610cdf565b8080600101915050610a7c565b5060018360070160016101000a81548160ff0219169083151502179055508260040160009054906101000a900473ffffffffffffffffffffffffffffffffffffffff1673ffffffffffffffffffffffffffffffffffffffff167fc75dae78fa02e9034627e5e4bb23cd6ec93489055f8996cae27760fbd05e2564846003015485600001604051610d70929190612457565b60405180910390a2600a63ffffffff1642610d8b9190611e5b565b83600601819055507f6543ec12c6e53f26532beb5289ef5732dcd77c2e9e9921ae42b695905f5e84c08360060154604051610dc69190611a63565b60405180910390a16001600060146101000a81548160ff021916908315150217905550505050565b80600160003373ffffffffffffffffffffffffffffffffffffffff1673ffffffffffffffffffffffffffffffffffffffff168152602001908152602001600020541015610e70576040517f08c379a0000000000000000000000000000000000000000000000000000000008152600401610e67906124d3565b60405180910390fd5b80600160003373ffffffffffffffffffffffffffffffffffffffff1673ffffffffffffffffffffffffffffffffffffffff1681526020019081526020016000206000828254610ebf9190611d8c565b925050819055503373ffffffffffffffffffffffffffffffffffffffff166108fc829081150290604051600060405180830381858888f19350505050158015610f0c573d6000803e3d6000fd5b503373ffffffffffffffffffffffffffffffffffffffff167f884edad9ce6fa2440d8a54cc123490eb96d2768479d49ff9c7366125a942436482604051610f539190611a63565b60405180910390a250565b60008060028054905011610fa7576040517f08c379a0000000000000000000000000000000000000000000000000000000008152600401610f9e90611d3d565b60405180910390fd5b600060026001600280549050610fbd9190611d8c565b81548110610fce57610fcd611dc0565b5b90600052602060002090600802019050806003015491505090565b6060600060028054905011611033576040517f08c379a000000000000000000000000000000000000000000000000000000000815260040161102a90611d3d565b60405180910390fd5b6000600260016002805490506110499190611d8c565b8154811061105a57611059611dc0565b5b90600052602060002090600802019050806000018054806020026020016040519081016040528092919081815260200182805480156110ee57602002820191906000526020600020905b8160009054906101000a900473ffffffffffffffffffffffffffffffffffffffff1673ffffffffffffffffffffffffffffffffffffffff16815260200190600101908083116110a4575b505050505091505090565b60008054906101000a900473ffffffffffffffffffffffffffffffffffffffff1673ffffffffffffffffffffffffffffffffffffffff163373ffffffffffffffffffffffffffffffffffffffff1614611187576040517f08c379a000000000000000000000000000000000000000000000000000000000815260040161117e90612141565b60405180910390fd5b600060149054906101000a900460ff166111d6576040517f08c379a00000000000000000000000000000000000000000000000000000000081526004016111cd9061253f565b60405180910390fd5b60008060146101000a81548160ff0219169083151502179055506000600260018160018154018082558091505003906000526020600020906008020190506000816005018190555060008160070160006101000a81548160ff02191690831515021790555060008160070160016101000a81548160ff0219169083151502179055506000816003018190555060008160040160006101000a81548173ffffffffffffffffffffffffffffffffffffffff021916908373ffffffffffffffffffffffffffffffffffffffff1602179055507fa9b16ee27e98bfd24c40b4289407e13636636ebca0ece66df90cc6d126b471b68160030154826000018054905083600001846001016040516112ec949392919061207c565b60405180910390a150565b6002818154811061130757600080fd5b90600052602060002090600802016000915090508060030154908060040160009054906101000a900473ffffffffffffffffffffffffffffffffffffffff16908060050154908060060154908060070160009054906101000a900460ff16908060070160019054906101000a900460ff16905086565b6000600280549050116113c5576040517f08c379a00000000000000000000000000000000000000000000000000000000081526004016113bc90611d3d565b60405180910390fd5b6000600260016002805490506113db9190611d8c565b815481106113ec576113eb611dc0565b5b906000526020600020906008020190508060070160009054906101000a900460ff161561144e576040517f08c379a0000000000000000000000000000000000000000000000000000000008152600401611445906125ab565b60405180910390fd5b60008160020160003373ffffffffffffffffffffffffffffffffffffffff1673ffffffffffffffffffffffffffffffffffffffff168152602001908152602001600020549050600081116114d7576040517f08c379a00000000000000000000000000000000000000000000000000000000081526004016114ce90612617565b60405180910390fd5b60006001826114e69190611d8c565b9050838360010182815481106114ff576114fe611dc0565b5b9060005260206000200154101561154b576040517f08c379a000000000000000000000000000000000000000000000000000000000815260040161154290612683565b60405180910390fd5b8383600101828154811061156257611561611dc0565b5b90600052602060002001600082825461157b9190611d8c565b92505081905550838360030160008282546115969190611d8c565b9250508190555083600160003373ffffffffffffffffffffffffffffffffffffffff1673ffffffffffffffffffffffffffffffffffffffff16815260200190815260200160002060008282546115ec9190611e5b565b92505081905550600083600101828154811061160b5761160a611dc0565b5b90600052602060002001540361186b576000600184600001805490506116319190611d8c565b90508082146117b1578360000181815481106116505761164f611dc0565b5b9060005260206000200160009054906101000a900473ffffffffffffffffffffffffffffffffffffffff1684600001838154811061169157611690611dc0565b5b9060005260206000200160006101000a81548173ffffffffffffffffffffffffffffffffffffffff021916908373ffffffffffffffffffffffffffffffffffffffff1602179055508360010181815481106116ef576116ee611dc0565b5b90600052602060002001548460010183815481106117105761170f611dc0565b5b906000526020600020018190555060018261172b9190611e5b565b84600201600086600001858154811061174757611746611dc0565b5b9060005260206000200160009054906101000a900473ffffffffffffffffffffffffffffffffffffffff1673ffffffffffffffffffffffffffffffffffffffff1673ffffffffffffffffffffffffffffffffffffffff168152602001908152602001600020819055505b836000018054806117c5576117c46126a3565b5b6001900381819060005260206000200160006101000a81549073ffffffffffffffffffffffffffffffffffffffff021916905590558360010180548061180e5761180d6126a3565b5b600190038181906000526020600020016000905590558360020160003373ffffffffffffffffffffffffffffffffffffffff1673ffffffffffffffffffffffffffffffffffffffff16815260200190815260200160002060009055505b7fa9b16ee27e98bfd24c40b4289407e13636636ebca0ece66df90cc6d126b471b68360030154846000018054905085600001866001016040516118b1949392919061207c565b60405180910390a17f05bb376ea94bca82fc4493d7cf5e9312eafd8880e82be399c39d784121293e3660405160405180910390a150505050565b6000341161192e576040517f08c379a00000000000000000000000000000000000000000000000000000000081526004016119259061271e565b60405180910390fd5b34600160003373ffffffffffffffffffffffffffffffffffffffff1673ffffffffffffffffffffffffffffffffffffffff168152602001908152602001600020600082825461197d9190611e5b565b925050819055503373ffffffffffffffffffffffffffffffffffffffff167fe1fffcc4923d04b559f4d29a8bfc6cda04eb5b0d3c460751c2402c5c5cc9109c346040516119ca9190611a63565b60405180910390a2565b60016020528060005260406000206000915090505481565b600080fd5b6000819050919050565b611a04816119f1565b8114611a0f57600080fd5b50565b600081359050611a21816119fb565b92915050565b600060208284031215611a3d57611a3c6119ec565b5b6000611a4b84828501611a12565b91505092915050565b611a5d816119f1565b82525050565b6000602082019050611a786000830184611a54565b92915050565b600081519050919050565b600082825260208201905092915050565b6000819050602082019050919050565b600073ffffffffffffffffffffffffffffffffffffffff82169050919050565b6000611ad582611aaa565b9050919050565b611ae581611aca565b82525050565b6000611af78383611adc565b60208301905092915050565b6000602082019050919050565b6000611b1b82611a7e565b611b258185611a89565b9350611b3083611a9a565b8060005b83811015611b61578151611b488882611aeb565b9750611b5383611b03565b925050600181019050611b34565b5085935050505092915050565b60006020820190508181036000830152611b888184611b10565b905092915050565b611b9981611aca565b82525050565b60008115159050919050565b611bb481611b9f565b82525050565b600060c082019050611bcf6000830189611a54565b611bdc6020830188611b90565b611be96040830187611a54565b611bf66060830186611a54565b611c036080830185611bab565b611c1060a0830184611bab565b979650505050505050565b611c2481611aca565b8114611c2f57600080fd5b50565b600081359050611c4181611c1b565b92915050565b600060208284031215611c5d57611c5c6119ec565b5b6000611c6b84828501611c32565b91505092915050565b600082825260208201905092915050565b7f496e73756666696369656e742062616c616e6365000000000000000000000000600082015250565b6000611cbb601483611c74565b9150611cc682611c85565b602082019050919050565b60006020820190508181036000830152611cea81611cae565b9050919050565b7f4e6f206163746976652067616d652073657373696f6e73000000000000000000600082015250565b6000611d27601783611c74565b9150611d3282611cf1565b602082019050919050565b60006020820190508181036000830152611d5681611d1a565b9050919050565b7f4e487b7100000000000000000000000000000000000000000000000000000000600052601160045260246000fd5b6000611d97826119f1565b9150611da2836119f1565b9250828203905081811115611dba57611db9611d5d565b5b92915050565b7f4e487b7100000000000000000000000000000000000000000000000000000000600052603260045260246000fd5b7f53657373696f6e20616c726561647920636f6d706c6574656400000000000000600082015250565b6000611e25601983611c74565b9150611e3082611def565b602082019050919050565b60006020820190508181036000830152611e5481611e18565b9050919050565b6000611e66826119f1565b9150611e71836119f1565b9250828201905080821115611e8957611e88611d5d565b5b92915050565b600081549050919050565b60008190508160005260206000209050919050565b60008160001c9050919050565b600073ffffffffffffffffffffffffffffffffffffffff82169050919050565b6000611eef611eea83611eaf565b611ebc565b9050919050565b6000611f028254611edc565b9050919050565b6000600182019050919050565b6000611f2182611e8f565b611f2b8185611a89565b9350611f3683611e9a565b8060005b83811015611f6e57611f4b82611ef6565b611f558882611aeb565b9750611f6083611f09565b925050600181019050611f3a565b5085935050505092915050565b600081549050919050565b600082825260208201905092915050565b60008190508160005260206000209050919050565b611fb5816119f1565b82525050565b6000611fc78383611fac565b60208301905092915050565b6000819050919050565b6000611ff0611feb83611eaf565b611fd3565b9050919050565b60006120038254611fdd565b9050919050565b6000600182019050919050565b600061202282611f7b565b61202c8185611f86565b935061203783611f97565b8060005b8381101561206f5761204c82611ff7565b6120568882611fbb565b97506120618361200a565b92505060018101905061203b565b5085935050505092915050565b60006080820190506120916000830187611a54565b61209e6020830186611a54565b81810360408301526120b08185611f16565b905081810360608301526120c48184612017565b905095945050505050565b7f4f6e6c7920746865206f776e65722063616e2063616c6c20746869732066756e60008201527f6374696f6e000000000000000000000000000000000000000000000000000000602082015250565b600061212b602583611c74565b9150612136826120cf565b604082019050919050565b6000602082019050818103600083015261215a8161211e565b9050919050565b7f47616d65206973207374696c6c2072756e6e696e670000000000000000000000600082015250565b6000612197601583611c74565b91506121a282612161565b602082019050919050565b600060208201905081810360008301526121c68161218a565b9050919050565b7f47616d65206e6f74207374617274656400000000000000000000000000000000600082015250565b6000612203601083611c74565b915061220e826121cd565b602082019050919050565b60006020820190508181036000830152612232816121f6565b9050919050565b7f546f74616c20706f74206973207a65726f000000000000000000000000000000600082015250565b600061226f601183611c74565b915061227a82612239565b602082019050919050565b6000602082019050818103600083015261229e81612262565b9050919050565b6000819050919050565b6122c06122bb826119f1565b6122a5565b82525050565b60006122d282856122af565b6020820191506122e282846122af565b6020820191508190509392505050565b7f4e487b7100000000000000000000000000000000000000000000000000000000600052601260045260246000fd5b600061232c826119f1565b9150612337836119f1565b925082612347576123466122f2565b5b828206905092915050565b600061235d826119f1565b9150612368836119f1565b9250828202612376816119f1565b9150828204841483151761238d5761238c611d5d565b5b5092915050565b600061239f826119f1565b91506123aa836119f1565b9250826123ba576123b96122f2565b5b828204905092915050565b7f496e73756666696369656e742066756e647320666f7220636f6d6d697373696f60008201527f6e00000000000000000000000000000000000000000000000000000000000000602082015250565b6000612421602183611c74565b915061242c826123c5565b604082019050919050565b6000602082019050818103600083015261245081612414565b9050919050565b600060408201905061246c6000830185611a54565b818103602083015261247e8184611f16565b90509392505050565b7f496e73756666696369656e742066756e6473206f6e2062616c616e6365000000600082015250565b60006124bd601d83611c74565b91506124c882612487565b602082019050919050565b600060208201905081810360008301526124ec816124b0565b9050919050565b7f47616d652073617373696f6e206e6f74206f7665720000000000000000000000600082015250565b6000612529601583611c74565b9150612534826124f3565b602082019050919050565b600060208201905081810360008301526125588161251c565b9050919050565b7f47616d6520686173207374617274656400000000000000000000000000000000600082015250565b6000612595601083611c74565b91506125a08261255f565b602082019050919050565b600060208201905081810360008301526125c481612588565b9050919050565b7f596f752068617665206e6f7420706c6163656420616e79206265747300000000600082015250565b6000612601601c83611c74565b915061260c826125cb565b602082019050919050565b60006020820190508181036000830152612630816125f4565b9050919050565b7f496e73756666696369656e74206265742062616c616e63650000000000000000600082015250565b600061266d601883611c74565b915061267882612637565b602082019050919050565b6000602082019050818103600083015261269c81612660565b9050919050565b7f4e487b7100000000000000000000000000000000000000000000000000000000600052603160045260246000fd5b7f4d7573742073656e642045544800000000000000000000000000000000000000600082015250565b6000612708600d83611c74565b9150612713826126d2565b602082019050919050565b60006020820190508181036000830152612737816126fb565b905091905056fea2646970667358221220ebd5ba3fca9fc4efffcfcc83c9443424af4c7baedbbd8611572c7bd4e3039b2864736f6c63430008180033",
    "linkReferences": {},
    "deployedLinkReferences": {}
}