{
    "_format": "hh-sol-artifact-1",
    "contractName": "WheelOfFortune",
    "sourceName": "contracts/WheelOfFortune/WheelOfFortune.sol",
    "abi": [
        {
            "inputs": [],
            "stateMutability": "nonpayable",
            "type": "constructor"
        },
        {
            "anonymous": false,
            "inputs": [
                {
                    "indexed": true,
                    "internalType": "address",
                    "name": "user",
                    "type": "address"
                },
                {
                    "indexed": false,
                    "internalType": "uint256",
                    "name": "amount",
                    "type": "uint256"
                }
            ],
            "name": "BetPlaced",
            "type": "event"
        },
        {
            "anonymous": false,
            "inputs": [
                {
                    "indexed": true,
                    "internalType": "address",
                    "name": "user",
                    "type": "address"
                },
                {
                    "indexed": false,
                    "internalType": "uint256",
                    "name": "amount",
                    "type": "uint256"
                }
            ],
            "name": "Deposit",
            "type": "event"
        },
        {
            "anonymous": false,
            "inputs": [
                {
                    "indexed": false,
                    "internalType": "uint256",
                    "name": "startAt",
                    "type": "uint256"
                }
            ],
            "name": "GameFinished",
            "type": "event"
        },
        {
            "anonymous": false,
            "inputs": [
                {
                    "indexed": true,
                    "internalType": "address",
                    "name": "winner",
                    "type": "address"
                },
                {
                    "indexed": false,
                    "internalType": "uint256",
                    "name": "totalAmount",
                    "type": "uint256"
                },
                {
                    "indexed": false,
                    "internalType": "address[]",
                    "name": "participants",
                    "type": "address[]"
                }
            ],
            "name": "GameResult",
            "type": "event"
        },
        {
            "anonymous": false,
            "inputs": [
                {
                    "indexed": false,
                    "internalType": "uint256",
                    "name": "endsAt",
                    "type": "uint256"
                }
            ],
            "name": "GameStarted",
            "type": "event"
        },
        {
            "anonymous": false,
            "inputs": [
                {
                    "indexed": false,
                    "internalType": "address[]",
                    "name": "participants",
                    "type": "address[]"
                },
                {
                    "indexed": false,
                    "internalType": "uint256[]",
                    "name": "bets",
                    "type": "uint256[]"
                }
            ],
            "name": "ParticipantsUpdated",
            "type": "event"
        },
        {
            "anonymous": false,
            "inputs": [
                {
                    "indexed": false,
                    "internalType": "uint256",
                    "name": "newTotalPot",
                    "type": "uint256"
                },
                {
                    "indexed": false,
                    "internalType": "uint256",
                    "name": "participantCount",
                    "type": "uint256"
                }
            ],
            "name": "TotalUpdate",
            "type": "event"
        },
        {
            "anonymous": false,
            "inputs": [
                {
                    "indexed": true,
                    "internalType": "address",
                    "name": "user",
                    "type": "address"
                },
                {
                    "indexed": false,
                    "internalType": "uint256",
                    "name": "amount",
                    "type": "uint256"
                }
            ],
            "name": "Withdraw",
            "type": "event"
        },
        {
            "inputs": [
                {
                    "internalType": "uint256",
                    "name": "",
                    "type": "uint256"
                }
            ],
            "name": "GameSessions",
            "outputs": [
                {
                    "internalType": "uint256",
                    "name": "totalPot",
                    "type": "uint256"
                },
                {
                    "internalType": "address",
                    "name": "winner",
                    "type": "address"
                },
                {
                    "internalType": "uint256",
                    "name": "endsGameAt",
                    "type": "uint256"
                },
                {
                    "internalType": "uint256",
                    "name": "nextGameStartAt",
                    "type": "uint256"
                },
                {
                    "internalType": "bool",
                    "name": "start",
                    "type": "bool"
                },
                {
                    "internalType": "bool",
                    "name": "stopped",
                    "type": "bool"
                }
            ],
            "stateMutability": "view",
            "type": "function"
        },
        {
            "inputs": [
                {
                    "internalType": "address",
                    "name": "",
                    "type": "address"
                }
            ],
            "name": "balance",
            "outputs": [
                {
                    "internalType": "uint256",
                    "name": "",
                    "type": "uint256"
                }
            ],
            "stateMutability": "view",
            "type": "function"
        },
        {
            "inputs": [],
            "name": "createGameSession",
            "outputs": [],
            "stateMutability": "nonpayable",
            "type": "function"
        },
        {
            "inputs": [],
            "name": "deposit",
            "outputs": [],
            "stateMutability": "payable",
            "type": "function"
        },
        {
            "inputs": [],
            "name": "getBalance",
            "outputs": [
                {
                    "internalType": "uint256",
                    "name": "",
                    "type": "uint256"
                }
            ],
            "stateMutability": "view",
            "type": "function"
        },
        {
            "inputs": [],
            "name": "getParcticipants",
            "outputs": [
                {
                    "internalType": "address[]",
                    "name": "",
                    "type": "address[]"
                }
            ],
            "stateMutability": "view",
            "type": "function"
        },
        {
            "inputs": [],
            "name": "getTotalPot",
            "outputs": [
                {
                    "internalType": "uint256",
                    "name": "",
                    "type": "uint256"
                }
            ],
            "stateMutability": "view",
            "type": "function"
        },
        {
            "inputs": [
                {
                    "internalType": "uint256",
                    "name": "amount",
                    "type": "uint256"
                }
            ],
            "name": "placeBet",
            "outputs": [],
            "stateMutability": "nonpayable",
            "type": "function"
        },
        {
            "inputs": [],
            "name": "spinWheel",
            "outputs": [],
            "stateMutability": "nonpayable",
            "type": "function"
        },
        {
            "inputs": [
                {
                    "internalType": "uint256",
                    "name": "amount",
                    "type": "uint256"
                }
            ],
            "name": "withdraw",
            "outputs": [],
            "stateMutability": "nonpayable",
            "type": "function"
        }
    ],
    "bytecode": "0x60806040526001600060146101000a81548160ff0219169083151502179055503480156200002c57600080fd5b50336000806101000a81548173ffffffffffffffffffffffffffffffffffffffff021916908373ffffffffffffffffffffffffffffffffffffffff1602179055506200007d6200008360201b60201c565b620006e7565b60008054906101000a900473ffffffffffffffffffffffffffffffffffffffff1673ffffffffffffffffffffffffffffffffffffffff163373ffffffffffffffffffffffffffffffffffffffff161462000114576040517f08c379a00000000000000000000000000000000000000000000000000000000081526004016200010b9062000347565b60405180910390fd5b600060149054906101000a900460ff1662000166576040517f08c379a00000000000000000000000000000000000000000000000000000000081526004016200015d90620003b9565b60405180910390fd5b60008060146101000a81548160ff0219169083151502179055506000600260018160018154018082558091505003906000526020600020906008020190506000816005018190555060008160070160006101000a81548160ff02191690831515021790555060008160070160016101000a81548160ff0219169083151502179055506000816003018190555060008160040160006101000a81548173ffffffffffffffffffffffffffffffffffffffff021916908373ffffffffffffffffffffffffffffffffffffffff1602179055507fc53013643f2ae423cf038b583fa3c8dff5d684aeafefd492a6f979001519555381600001826001016040516200026f9291906200066e565b60405180910390a17f7f81ee5f85b46a2660000cf726598f44ce0e9035fede5efba6fa82213475a77281600301548260000180549050604051620002b5929190620006ba565b60405180910390a150565b600082825260208201905092915050565b7f4f6e6c7920746865206f776e65722063616e2063616c6c20746869732066756e60008201527f6374696f6e000000000000000000000000000000000000000000000000000000602082015250565b60006200032f602583620002c0565b91506200033c82620002d1565b604082019050919050565b60006020820190508181036000830152620003628162000320565b9050919050565b7f47616d652073617373696f6e206e6f74206f7665720000000000000000000000600082015250565b6000620003a1601583620002c0565b9150620003ae8262000369565b602082019050919050565b60006020820190508181036000830152620003d48162000392565b9050919050565b600081549050919050565b600082825260208201905092915050565b60008190508160005260206000209050919050565b600073ffffffffffffffffffffffffffffffffffffffff82169050919050565b600062000439826200040c565b9050919050565b6200044b816200042c565b82525050565b60006200045f838362000440565b60208301905092915050565b60008160001c9050919050565b600073ffffffffffffffffffffffffffffffffffffffff82169050919050565b6000620004af620004a9836200046b565b62000478565b9050919050565b6000620004c4825462000498565b9050919050565b6000600182019050919050565b6000620004e582620003db565b620004f18185620003e6565b9350620004fe83620003f7565b8060005b838110156200053e576200051682620004b6565b62000522888262000451565b97506200052f83620004cb565b92505060018101905062000502565b5085935050505092915050565b600081549050919050565b600082825260208201905092915050565b60008190508160005260206000209050919050565b6000819050919050565b62000591816200057c565b82525050565b6000620005a5838362000586565b60208301905092915050565b6000819050919050565b6000620005d2620005cc836200046b565b620005b1565b9050919050565b6000620005e78254620005bb565b9050919050565b6000600182019050919050565b600062000608826200054b565b62000614818562000556565b9350620006218362000567565b8060005b8381101562000661576200063982620005d9565b62000645888262000597565b97506200065283620005ee565b92505060018101905062000625565b5085935050505092915050565b600060408201905081810360008301526200068a8185620004d8565b90508181036020830152620006a08184620005fb565b90509392505050565b620006b4816200057c565b82525050565b6000604082019050620006d16000830185620006a9565b620006e06020830184620006a9565b9392505050565b611f5a80620006f76000396000f3fe6080604052600436106100915760003560e01c806348a61de41161005957806348a61de4146101555780635c28a4071461018057806395e6a53c14610197578063d0e30db0146101d9578063e3d670d7146101e357610091565b806310fe7c481461009657806312065fe0146100bf57806315ecef92146100ea5780632e1a7d4d14610101578063480bc31f1461012a575b600080fd5b3480156100a257600080fd5b506100bd60048036038101906100b89190611405565b610220565b005b3480156100cb57600080fd5b506100d46107af565b6040516100e19190611441565b60405180910390f35b3480156100f657600080fd5b506100ff6107f6565b005b34801561010d57600080fd5b5061012860048036038101906101239190611405565b610d05565b005b34801561013657600080fd5b5061013f610e75565b60405161014c9190611441565b60405180910390f35b34801561016157600080fd5b5061016a610f00565b604051610177919061154c565b60405180910390f35b34801561018c57600080fd5b50610195611010565b005b3480156101a357600080fd5b506101be60048036038101906101b99190611405565b611243565b6040516101d096959493929190611598565b60405180910390f35b6101e16112c9565b005b3480156101ef57600080fd5b5061020a60048036038101906102059190611625565b6113b2565b6040516102179190611441565b60405180910390f35b80600160003373ffffffffffffffffffffffffffffffffffffffff1673ffffffffffffffffffffffffffffffffffffffff1681526020019081526020016000205410156102a2576040517f08c379a0000000000000000000000000000000000000000000000000000000008152600401610299906116af565b60405180910390fd5b6000600280549050116102ea576040517f08c379a00000000000000000000000000000000000000000000000000000000081526004016102e19061171b565b60405180910390fd5b600060026001600280549050610300919061176a565b815481106103115761031061179e565b5b906000526020600020906008020190508060070160019054906101000a900460ff1615610373576040517f08c379a000000000000000000000000000000000000000000000000000000000815260040161036a90611819565b60405180910390fd5b81600160003373ffffffffffffffffffffffffffffffffffffffff1673ffffffffffffffffffffffffffffffffffffffff16815260200190815260200160002060008282546103c2919061176a565b925050819055506000808260020160003373ffffffffffffffffffffffffffffffffffffffff1673ffffffffffffffffffffffffffffffffffffffff1681526020019081526020016000205414801561049a575060008260000180549050148061049957503373ffffffffffffffffffffffffffffffffffffffff16826000016000815481106104555761045461179e565b5b9060005260206000200160009054906101000a900473ffffffffffffffffffffffffffffffffffffffff1673ffffffffffffffffffffffffffffffffffffffff1614155b5b1561059c5781600001339080600181540180825580915050600190039060005260206000200160009091909190916101000a81548173ffffffffffffffffffffffffffffffffffffffff021916908373ffffffffffffffffffffffffffffffffffffffff1602179055508160010183908060018154018082558091505060019003906000526020600020016000909190919091505560018260000180549050610543919061176a565b90506001816105529190611839565b8260020160003373ffffffffffffffffffffffffffffffffffffffff1673ffffffffffffffffffffffffffffffffffffffff16815260200190815260200160002081905550610624565b60018260020160003373ffffffffffffffffffffffffffffffffffffffff1673ffffffffffffffffffffffffffffffffffffffff168152602001908152602001600020546105ea919061176a565b9050828260010182815481106106035761060261179e565b5b90600052602060002001600082825461061c9190611839565b925050819055505b828260030160008282546106389190611839565b925050819055507fc53013643f2ae423cf038b583fa3c8dff5d684aeafefd492a6f97900151955538260000183600101604051610676929190611a5a565b60405180910390a13373ffffffffffffffffffffffffffffffffffffffff167f43e08d78302cdf9c94e1ffd293c2a3696139ee41cf3199b6f5eed9c7f6cc6090846040516106c49190611441565b60405180910390a27f7f81ee5f85b46a2660000cf726598f44ce0e9035fede5efba6fa82213475a77282600301548360000180549050604051610708929190611a91565b60405180910390a1600382600001805490501015801561073757508160070160009054906101000a900460ff16155b156107aa5760018260070160006101000a81548160ff021916908315150217905550601e426107669190611839565b82600501819055507f50ad08f58a27f2851d7e3a1b3a6a46b290f2ce677e99642d30ff639721e7779082600501546040516107a19190611441565b60405180910390a15b505050565b6000600160003373ffffffffffffffffffffffffffffffffffffffff1673ffffffffffffffffffffffffffffffffffffffff16815260200190815260200160002054905090565b60008054906101000a900473ffffffffffffffffffffffffffffffffffffffff1673ffffffffffffffffffffffffffffffffffffffff163373ffffffffffffffffffffffffffffffffffffffff1614610884576040517f08c379a000000000000000000000000000000000000000000000000000000000815260040161087b90611b2c565b60405180910390fd5b6000600280549050116108cc576040517f08c379a00000000000000000000000000000000000000000000000000000000081526004016108c39061171b565b60405180910390fd5b6000600260016002805490506108e2919061176a565b815481106108f3576108f261179e565b5b90600052602060002090600802019050806005015442101561094a576040517f08c379a000000000000000000000000000000000000000000000000000000000815260040161094190611b98565b60405180910390fd5b8060070160009054906101000a900460ff1661099b576040517f08c379a000000000000000000000000000000000000000000000000000000000815260040161099290611c04565b60405180910390fd5b8060070160019054906101000a900460ff16156109ed576040517f08c379a00000000000000000000000000000000000000000000000000000000081526004016109e490611819565b60405180910390fd5b6000816003015411610a34576040517f08c379a0000000000000000000000000000000000000000000000000000000008152600401610a2b90611c70565b60405180910390fd5b600081600301544442604051602001610a4e929190611cb1565b6040516020818303038152906040528051906020012060001c610a719190611d0c565b90506000805b8360000180549050811015610bfc57836001018181548110610a9c57610a9b61179e565b5b906000526020600020015482610ab29190611839565b915081831015610bef57836000018181548110610ad257610ad161179e565b5b9060005260206000200160009054906101000a900473ffffffffffffffffffffffffffffffffffffffff168460040160006101000a81548173ffffffffffffffffffffffffffffffffffffffff021916908373ffffffffffffffffffffffffffffffffffffffff16021790555060006064600a8660030154610b549190611d3d565b610b5e9190611d7f565b8560030154610b6d919061176a565b905080600160008760040160009054906101000a900473ffffffffffffffffffffffffffffffffffffffff1673ffffffffffffffffffffffffffffffffffffffff1673ffffffffffffffffffffffffffffffffffffffff1681526020019081526020016000206000828254610be29190611839565b9250508190555050610bfc565b8080600101915050610a77565b5060018360070160016101000a81548160ff0219169083151502179055508260040160009054906101000a900473ffffffffffffffffffffffffffffffffffffffff1673ffffffffffffffffffffffffffffffffffffffff167fc75dae78fa02e9034627e5e4bb23cd6ec93489055f8996cae27760fbd05e2564846003015485600001604051610c8d929190611db0565b60405180910390a2600a42610ca29190611839565b83600601819055507f6543ec12c6e53f26532beb5289ef5732dcd77c2e9e9921ae42b695905f5e84c08360060154604051610cdd9190611441565b60405180910390a16001600060146101000a81548160ff021916908315150217905550505050565b80600160003373ffffffffffffffffffffffffffffffffffffffff1673ffffffffffffffffffffffffffffffffffffffff168152602001908152602001600020541015610d87576040517f08c379a0000000000000000000000000000000000000000000000000000000008152600401610d7e90611e2c565b60405180910390fd5b80600160003373ffffffffffffffffffffffffffffffffffffffff1673ffffffffffffffffffffffffffffffffffffffff1681526020019081526020016000206000828254610dd6919061176a565b925050819055503373ffffffffffffffffffffffffffffffffffffffff166108fc829081150290604051600060405180830381858888f19350505050158015610e23573d6000803e3d6000fd5b503373ffffffffffffffffffffffffffffffffffffffff167f884edad9ce6fa2440d8a54cc123490eb96d2768479d49ff9c7366125a942436482604051610e6a9190611441565b60405180910390a250565b60008060028054905011610ebe576040517f08c379a0000000000000000000000000000000000000000000000000000000008152600401610eb59061171b565b60405180910390fd5b600060026001600280549050610ed4919061176a565b81548110610ee557610ee461179e565b5b90600052602060002090600802019050806003015491505090565b6060600060028054905011610f4a576040517f08c379a0000000000000000000000000000000000000000000000000000000008152600401610f419061171b565b60405180910390fd5b600060026001600280549050610f60919061176a565b81548110610f7157610f7061179e565b5b906000526020600020906008020190508060000180548060200260200160405190810160405280929190818152602001828054801561100557602002820191906000526020600020905b8160009054906101000a900473ffffffffffffffffffffffffffffffffffffffff1673ffffffffffffffffffffffffffffffffffffffff1681526020019060010190808311610fbb575b505050505091505090565b60008054906101000a900473ffffffffffffffffffffffffffffffffffffffff1673ffffffffffffffffffffffffffffffffffffffff163373ffffffffffffffffffffffffffffffffffffffff161461109e576040517f08c379a000000000000000000000000000000000000000000000000000000000815260040161109590611b2c565b60405180910390fd5b600060149054906101000a900460ff166110ed576040517f08c379a00000000000000000000000000000000000000000000000000000000081526004016110e490611e98565b60405180910390fd5b60008060146101000a81548160ff0219169083151502179055506000600260018160018154018082558091505003906000526020600020906008020190506000816005018190555060008160070160006101000a81548160ff02191690831515021790555060008160070160016101000a81548160ff0219169083151502179055506000816003018190555060008160040160006101000a81548173ffffffffffffffffffffffffffffffffffffffff021916908373ffffffffffffffffffffffffffffffffffffffff1602179055507fc53013643f2ae423cf038b583fa3c8dff5d684aeafefd492a6f979001519555381600001826001016040516111f4929190611a5a565b60405180910390a17f7f81ee5f85b46a2660000cf726598f44ce0e9035fede5efba6fa82213475a77281600301548260000180549050604051611238929190611a91565b60405180910390a150565b6002818154811061125357600080fd5b90600052602060002090600802016000915090508060030154908060040160009054906101000a900473ffffffffffffffffffffffffffffffffffffffff16908060050154908060060154908060070160009054906101000a900460ff16908060070160019054906101000a900460ff16905086565b6000341161130c576040517f08c379a000000000000000000000000000000000000000000000000000000000815260040161130390611f04565b60405180910390fd5b34600160003373ffffffffffffffffffffffffffffffffffffffff1673ffffffffffffffffffffffffffffffffffffffff168152602001908152602001600020600082825461135b9190611839565b925050819055503373ffffffffffffffffffffffffffffffffffffffff167fe1fffcc4923d04b559f4d29a8bfc6cda04eb5b0d3c460751c2402c5c5cc9109c346040516113a89190611441565b60405180910390a2565b60016020528060005260406000206000915090505481565b600080fd5b6000819050919050565b6113e2816113cf565b81146113ed57600080fd5b50565b6000813590506113ff816113d9565b92915050565b60006020828403121561141b5761141a6113ca565b5b6000611429848285016113f0565b91505092915050565b61143b816113cf565b82525050565b60006020820190506114566000830184611432565b92915050565b600081519050919050565b600082825260208201905092915050565b6000819050602082019050919050565b600073ffffffffffffffffffffffffffffffffffffffff82169050919050565b60006114b382611488565b9050919050565b6114c3816114a8565b82525050565b60006114d583836114ba565b60208301905092915050565b6000602082019050919050565b60006114f98261145c565b6115038185611467565b935061150e83611478565b8060005b8381101561153f57815161152688826114c9565b9750611531836114e1565b925050600181019050611512565b5085935050505092915050565b6000602082019050818103600083015261156681846114ee565b905092915050565b611577816114a8565b82525050565b60008115159050919050565b6115928161157d565b82525050565b600060c0820190506115ad6000830189611432565b6115ba602083018861156e565b6115c76040830187611432565b6115d46060830186611432565b6115e16080830185611589565b6115ee60a0830184611589565b979650505050505050565b611602816114a8565b811461160d57600080fd5b50565b60008135905061161f816115f9565b92915050565b60006020828403121561163b5761163a6113ca565b5b600061164984828501611610565b91505092915050565b600082825260208201905092915050565b7f496e73756666696369656e742062616c616e6365000000000000000000000000600082015250565b6000611699601483611652565b91506116a482611663565b602082019050919050565b600060208201905081810360008301526116c88161168c565b9050919050565b7f4e6f206163746976652067616d652073657373696f6e73000000000000000000600082015250565b6000611705601783611652565b9150611710826116cf565b602082019050919050565b60006020820190508181036000830152611734816116f8565b9050919050565b7f4e487b7100000000000000000000000000000000000000000000000000000000600052601160045260246000fd5b6000611775826113cf565b9150611780836113cf565b92508282039050818111156117985761179761173b565b5b92915050565b7f4e487b7100000000000000000000000000000000000000000000000000000000600052603260045260246000fd5b7f53657373696f6e20616c726561647920636f6d706c6574656400000000000000600082015250565b6000611803601983611652565b915061180e826117cd565b602082019050919050565b60006020820190508181036000830152611832816117f6565b9050919050565b6000611844826113cf565b915061184f836113cf565b92508282019050808211156118675761186661173b565b5b92915050565b600081549050919050565b60008190508160005260206000209050919050565b60008160001c9050919050565b600073ffffffffffffffffffffffffffffffffffffffff82169050919050565b60006118cd6118c88361188d565b61189a565b9050919050565b60006118e082546118ba565b9050919050565b6000600182019050919050565b60006118ff8261186d565b6119098185611467565b935061191483611878565b8060005b8381101561194c57611929826118d4565b61193388826114c9565b975061193e836118e7565b925050600181019050611918565b5085935050505092915050565b600081549050919050565b600082825260208201905092915050565b60008190508160005260206000209050919050565b611993816113cf565b82525050565b60006119a5838361198a565b60208301905092915050565b6000819050919050565b60006119ce6119c98361188d565b6119b1565b9050919050565b60006119e182546119bb565b9050919050565b6000600182019050919050565b6000611a0082611959565b611a0a8185611964565b9350611a1583611975565b8060005b83811015611a4d57611a2a826119d5565b611a348882611999565b9750611a3f836119e8565b925050600181019050611a19565b5085935050505092915050565b60006040820190508181036000830152611a7481856118f4565b90508181036020830152611a8881846119f5565b90509392505050565b6000604082019050611aa66000830185611432565b611ab36020830184611432565b9392505050565b7f4f6e6c7920746865206f776e65722063616e2063616c6c20746869732066756e60008201527f6374696f6e000000000000000000000000000000000000000000000000000000602082015250565b6000611b16602583611652565b9150611b2182611aba565b604082019050919050565b60006020820190508181036000830152611b4581611b09565b9050919050565b7f47616d65206973207374696c6c2072756e6e696e670000000000000000000000600082015250565b6000611b82601583611652565b9150611b8d82611b4c565b602082019050919050565b60006020820190508181036000830152611bb181611b75565b9050919050565b7f47616d65206e6f74207374617274656400000000000000000000000000000000600082015250565b6000611bee601083611652565b9150611bf982611bb8565b602082019050919050565b60006020820190508181036000830152611c1d81611be1565b9050919050565b7f546f74616c20706f74206973207a65726f000000000000000000000000000000600082015250565b6000611c5a601183611652565b9150611c6582611c24565b602082019050919050565b60006020820190508181036000830152611c8981611c4d565b9050919050565b6000819050919050565b611cab611ca6826113cf565b611c90565b82525050565b6000611cbd8285611c9a565b602082019150611ccd8284611c9a565b6020820191508190509392505050565b7f4e487b7100000000000000000000000000000000000000000000000000000000600052601260045260246000fd5b6000611d17826113cf565b9150611d22836113cf565b925082611d3257611d31611cdd565b5b828206905092915050565b6000611d48826113cf565b9150611d53836113cf565b9250828202611d61816113cf565b91508282048414831517611d7857611d7761173b565b5b5092915050565b6000611d8a826113cf565b9150611d95836113cf565b925082611da557611da4611cdd565b5b828204905092915050565b6000604082019050611dc56000830185611432565b8181036020830152611dd781846118f4565b90509392505050565b7f496e73756666696369656e742066756e6473206f6e2062616c616e6365000000600082015250565b6000611e16601d83611652565b9150611e2182611de0565b602082019050919050565b60006020820190508181036000830152611e4581611e09565b9050919050565b7f47616d652073617373696f6e206e6f74206f7665720000000000000000000000600082015250565b6000611e82601583611652565b9150611e8d82611e4c565b602082019050919050565b60006020820190508181036000830152611eb181611e75565b9050919050565b7f4d7573742073656e642045544800000000000000000000000000000000000000600082015250565b6000611eee600d83611652565b9150611ef982611eb8565b602082019050919050565b60006020820190508181036000830152611f1d81611ee1565b905091905056fea2646970667358221220a93af5a37c0006c581b37381b170b1eeb9c5c1727ff3413169a27ebe6d2d9b9b64736f6c63430008180033",
    "linkReferences": {},
    "deployedLinkReferences": {}
}