{
  "_format": "hh-sol-artifact-1",
  "contractName": "WheelOfFortune",
  "sourceName": "contracts/WheelOfFortune/WheelOfFortune.sol",
  "abi": [
    {
      "inputs": [],
      "stateMutability": "nonpayable",
      "type": "constructor"
    },
    {
      "anonymous": false,
      "inputs": [
        {
          "indexed": true,
          "internalType": "address",
          "name": "user",
          "type": "address"
        },
        {
          "indexed": false,
          "internalType": "uint256",
          "name": "amount",
          "type": "uint256"
        }
      ],
      "name": "BetPlaced",
      "type": "event"
    },
    {
      "anonymous": false,
      "inputs": [
        {
          "indexed": true,
          "internalType": "address",
          "name": "user",
          "type": "address"
        },
        {
          "indexed": false,
          "internalType": "uint256",
          "name": "amount",
          "type": "uint256"
        }
      ],
      "name": "Deposit",
      "type": "event"
    },
    {
      "anonymous": false,
      "inputs": [],
      "name": "GameCreated",
      "type": "event"
    },
    {
      "anonymous": false,
      "inputs": [
        {
          "indexed": true,
          "internalType": "address",
          "name": "winner",
          "type": "address"
        },
        {
          "indexed": false,
          "internalType": "uint256",
          "name": "totalAmount",
          "type": "uint256"
        },
        {
          "indexed": false,
          "internalType": "address[]",
          "name": "participants",
          "type": "address[]"
        }
      ],
      "name": "GameResult",
      "type": "event"
    },
    {
      "anonymous": false,
      "inputs": [
        {
          "indexed": false,
          "internalType": "uint256",
          "name": "endsAt",
          "type": "uint256"
        }
      ],
      "name": "GameStarted",
      "type": "event"
    },
    {
      "anonymous": false,
      "inputs": [
        {
          "indexed": false,
          "internalType": "address[]",
          "name": "participants",
          "type": "address[]"
        },
        {
          "indexed": false,
          "internalType": "uint256[]",
          "name": "bets",
          "type": "uint256[]"
        }
      ],
      "name": "ParticipantsUpdated",
      "type": "event"
    },
    {
      "anonymous": false,
      "inputs": [
        {
          "indexed": false,
          "internalType": "uint256",
          "name": "newTotalPot",
          "type": "uint256"
        },
        {
          "indexed": false,
          "internalType": "uint256",
          "name": "participantCount",
          "type": "uint256"
        }
      ],
      "name": "TotalUpdate",
      "type": "event"
    },
    {
      "anonymous": false,
      "inputs": [
        {
          "indexed": true,
          "internalType": "address",
          "name": "user",
          "type": "address"
        },
        {
          "indexed": false,
          "internalType": "uint256",
          "name": "amount",
          "type": "uint256"
        }
      ],
      "name": "Withdraw",
      "type": "event"
    },
    {
      "inputs": [
        {
          "internalType": "uint256",
          "name": "",
          "type": "uint256"
        }
      ],
      "name": "GameSessions",
      "outputs": [
        {
          "internalType": "uint256",
          "name": "totalPot",
          "type": "uint256"
        },
        {
          "internalType": "uint256",
          "name": "endsGameAt",
          "type": "uint256"
        },
        {
          "internalType": "bool",
          "name": "start",
          "type": "bool"
        },
        {
          "internalType": "bool",
          "name": "stopped",
          "type": "bool"
        }
      ],
      "stateMutability": "view",
      "type": "function"
    },
    {
      "inputs": [
        {
          "internalType": "address",
          "name": "",
          "type": "address"
        }
      ],
      "name": "balance",
      "outputs": [
        {
          "internalType": "uint256",
          "name": "",
          "type": "uint256"
        }
      ],
      "stateMutability": "view",
      "type": "function"
    },
    {
      "inputs": [],
      "name": "deposit",
      "outputs": [],
      "stateMutability": "payable",
      "type": "function"
    },
    {
      "inputs": [],
      "name": "getBalance",
      "outputs": [
        {
          "internalType": "uint256",
          "name": "",
          "type": "uint256"
        }
      ],
      "stateMutability": "view",
      "type": "function"
    },
    {
      "inputs": [],
      "name": "getParcticipants",
      "outputs": [
        {
          "internalType": "address[]",
          "name": "",
          "type": "address[]"
        }
      ],
      "stateMutability": "view",
      "type": "function"
    },
    {
      "inputs": [],
      "name": "getTotalPot",
      "outputs": [
        {
          "internalType": "uint256",
          "name": "",
          "type": "uint256"
        }
      ],
      "stateMutability": "view",
      "type": "function"
    },
    {
      "inputs": [
        {
          "internalType": "uint256",
          "name": "amount",
          "type": "uint256"
        }
      ],
      "name": "placeBet",
      "outputs": [],
      "stateMutability": "nonpayable",
      "type": "function"
    },
    {
      "inputs": [],
      "name": "spinWheel",
      "outputs": [
        {
          "internalType": "address",
          "name": "winner",
          "type": "address"
        }
      ],
      "stateMutability": "nonpayable",
      "type": "function"
    },
    {
      "inputs": [
        {
          "internalType": "uint256",
          "name": "amount",
          "type": "uint256"
        }
      ],
      "name": "withdraw",
      "outputs": [],
      "stateMutability": "nonpayable",
      "type": "function"
    }
  ],
  "bytecode": "0x608060405234801561001057600080fd5b50336000806101000a81548173ffffffffffffffffffffffffffffffffffffffff021916908373ffffffffffffffffffffffffffffffffffffffff16021790555061005f61006460201b60201c565b6100fb565b6000600260018160018154018082558091505003906000526020600020906006020190506000816004018190555060008160050160006101000a81548160ff02191690831515021790555060008160050160016101000a81548160ff0219169083151502179055507f151802685129c44d0dd1313fc103826047d8aac8add2f9aec41ea52a69f2495d60405160405180910390a150565b611bb58061010a6000396000f3fe6080604052600436106100865760003560e01c8063480bc31f11610059578063480bc31f1461013357806348a61de41461015e57806395e6a53c14610189578063d0e30db0146101c9578063e3d670d7146101d357610086565b806310fe7c481461008b57806312065fe0146100b457806315ecef92146100df5780632e1a7d4d1461010a575b600080fd5b34801561009757600080fd5b506100b260048036038101906100ad91906110f1565b610210565b005b3480156100c057600080fd5b506100c96107a0565b6040516100d6919061112d565b60405180910390f35b3480156100eb57600080fd5b506100f46107e7565b6040516101019190611189565b60405180910390f35b34801561011657600080fd5b50610131600480360381019061012c91906110f1565b610bb9565b005b34801561013f57600080fd5b50610148610d29565b604051610155919061112d565b60405180910390f35b34801561016a57600080fd5b50610173610db4565b6040516101809190611262565b60405180910390f35b34801561019557600080fd5b506101b060048036038101906101ab91906110f1565b610ec4565b6040516101c0949392919061129f565b60405180910390f35b6101d1610f1e565b005b3480156101df57600080fd5b506101fa60048036038101906101f59190611310565b611007565b604051610207919061112d565b60405180910390f35b80600160003373ffffffffffffffffffffffffffffffffffffffff1673ffffffffffffffffffffffffffffffffffffffff168152602001908152602001600020541015610292576040517f08c379a00000000000000000000000000000000000000000000000000000000081526004016102899061139a565b60405180910390fd5b6000600280549050116102da576040517f08c379a00000000000000000000000000000000000000000000000000000000081526004016102d190611406565b60405180910390fd5b6000600260016002805490506102f09190611455565b8154811061030157610300611489565b5b906000526020600020906006020190508060050160019054906101000a900460ff1615610363576040517f08c379a000000000000000000000000000000000000000000000000000000000815260040161035a90611504565b60405180910390fd5b81600160003373ffffffffffffffffffffffffffffffffffffffff1673ffffffffffffffffffffffffffffffffffffffff16815260200190815260200160002060008282546103b29190611455565b925050819055506000808260020160003373ffffffffffffffffffffffffffffffffffffffff1673ffffffffffffffffffffffffffffffffffffffff1681526020019081526020016000205414801561048a575060008260000180549050148061048957503373ffffffffffffffffffffffffffffffffffffffff168260000160008154811061044557610444611489565b5b9060005260206000200160009054906101000a900473ffffffffffffffffffffffffffffffffffffffff1673ffffffffffffffffffffffffffffffffffffffff1614155b5b1561058c5781600001339080600181540180825580915050600190039060005260206000200160009091909190916101000a81548173ffffffffffffffffffffffffffffffffffffffff021916908373ffffffffffffffffffffffffffffffffffffffff16021790555081600101839080600181540180825580915050600190039060005260206000200160009091909190915055600182600001805490506105339190611455565b90506001816105429190611524565b8260020160003373ffffffffffffffffffffffffffffffffffffffff1673ffffffffffffffffffffffffffffffffffffffff16815260200190815260200160002081905550610614565b60018260020160003373ffffffffffffffffffffffffffffffffffffffff1673ffffffffffffffffffffffffffffffffffffffff168152602001908152602001600020546105da9190611455565b9050828260010182815481106105f3576105f2611489565b5b90600052602060002001600082825461060c9190611524565b925050819055505b828260030160008282546106289190611524565b925050819055507fc53013643f2ae423cf038b583fa3c8dff5d684aeafefd492a6f97900151955538260000183600101604051610666929190611745565b60405180910390a13373ffffffffffffffffffffffffffffffffffffffff167f43e08d78302cdf9c94e1ffd293c2a3696139ee41cf3199b6f5eed9c7f6cc6090846040516106b4919061112d565b60405180910390a27f7f81ee5f85b46a2660000cf726598f44ce0e9035fede5efba6fa82213475a772826003015483600001805490506040516106f892919061177c565b60405180910390a1600382600001805490501015801561072757508160050160009054906101000a900460ff16155b1561079b5760018260050160006101000a81548160ff02191690831515021790555061012c426107579190611524565b82600401819055507f50ad08f58a27f2851d7e3a1b3a6a46b290f2ce677e99642d30ff639721e777908260040154604051610792919061112d565b60405180910390a15b505050565b6000600160003373ffffffffffffffffffffffffffffffffffffffff1673ffffffffffffffffffffffffffffffffffffffff16815260200190815260200160002054905090565b60008060028054905011610830576040517f08c379a000000000000000000000000000000000000000000000000000000000815260040161082790611406565b60405180910390fd5b6000600260016002805490506108469190611455565b8154811061085757610856611489565b5b9060005260206000209060060201905080600401544210156108ae576040517f08c379a00000000000000000000000000000000000000000000000000000000081526004016108a5906117f1565b60405180910390fd5b8060050160009054906101000a900460ff166108ff576040517f08c379a00000000000000000000000000000000000000000000000000000000081526004016108f69061185d565b60405180910390fd5b8060050160019054906101000a900460ff1615610951576040517f08c379a000000000000000000000000000000000000000000000000000000000815260040161094890611504565b60405180910390fd5b6000816003015411610998576040517f08c379a000000000000000000000000000000000000000000000000000000000815260040161098f906118c9565b60405180910390fd5b6000816003015444426040516020016109b292919061190a565b6040516020818303038152906040528051906020012060001c6109d59190611965565b90506000805b8360000180549050811015610afc57836001018181548110610a00576109ff611489565b5b906000526020600020015482610a169190611524565b915081831015610aef57836000018181548110610a3657610a35611489565b5b9060005260206000200160009054906101000a900473ffffffffffffffffffffffffffffffffffffffff16945060006064600a8660030154610a789190611996565b610a8291906119d8565b8560030154610a919190611455565b905080600160008873ffffffffffffffffffffffffffffffffffffffff1673ffffffffffffffffffffffffffffffffffffffff1681526020019081526020016000206000828254610ae29190611524565b9250508190555050610afc565b80806001019150506109db565b5060018360050160016101000a81548160ff0219169083151502179055508373ffffffffffffffffffffffffffffffffffffffff167fc75dae78fa02e9034627e5e4bb23cd6ec93489055f8996cae27760fbd05e2564846003015485600001604051610b69929190611a09565b60405180910390a27f7f81ee5f85b46a2660000cf726598f44ce0e9035fede5efba6fa82213475a772600080604051610ba3929190611a7e565b60405180910390a1610bb361101f565b50505090565b80600160003373ffffffffffffffffffffffffffffffffffffffff1673ffffffffffffffffffffffffffffffffffffffff168152602001908152602001600020541015610c3b576040517f08c379a0000000000000000000000000000000000000000000000000000000008152600401610c3290611af3565b60405180910390fd5b80600160003373ffffffffffffffffffffffffffffffffffffffff1673ffffffffffffffffffffffffffffffffffffffff1681526020019081526020016000206000828254610c8a9190611455565b925050819055503373ffffffffffffffffffffffffffffffffffffffff166108fc829081150290604051600060405180830381858888f19350505050158015610cd7573d6000803e3d6000fd5b503373ffffffffffffffffffffffffffffffffffffffff167f884edad9ce6fa2440d8a54cc123490eb96d2768479d49ff9c7366125a942436482604051610d1e919061112d565b60405180910390a250565b60008060028054905011610d72576040517f08c379a0000000000000000000000000000000000000000000000000000000008152600401610d6990611406565b60405180910390fd5b600060026001600280549050610d889190611455565b81548110610d9957610d98611489565b5b90600052602060002090600602019050806003015491505090565b6060600060028054905011610dfe576040517f08c379a0000000000000000000000000000000000000000000000000000000008152600401610df590611406565b60405180910390fd5b600060026001600280549050610e149190611455565b81548110610e2557610e24611489565b5b9060005260206000209060060201905080600001805480602002602001604051908101604052809291908181526020018280548015610eb957602002820191906000526020600020905b8160009054906101000a900473ffffffffffffffffffffffffffffffffffffffff1673ffffffffffffffffffffffffffffffffffffffff1681526020019060010190808311610e6f575b505050505091505090565b60028181548110610ed457600080fd5b90600052602060002090600602016000915090508060030154908060040154908060050160009054906101000a900460ff16908060050160019054906101000a900460ff16905084565b60003411610f61576040517f08c379a0000000000000000000000000000000000000000000000000000000008152600401610f5890611b5f565b60405180910390fd5b34600160003373ffffffffffffffffffffffffffffffffffffffff1673ffffffffffffffffffffffffffffffffffffffff1681526020019081526020016000206000828254610fb09190611524565b925050819055503373ffffffffffffffffffffffffffffffffffffffff167fe1fffcc4923d04b559f4d29a8bfc6cda04eb5b0d3c460751c2402c5c5cc9109c34604051610ffd919061112d565b60405180910390a2565b60016020528060005260406000206000915090505481565b6000600260018160018154018082558091505003906000526020600020906006020190506000816004018190555060008160050160006101000a81548160ff02191690831515021790555060008160050160016101000a81548160ff0219169083151502179055507f151802685129c44d0dd1313fc103826047d8aac8add2f9aec41ea52a69f2495d60405160405180910390a150565b600080fd5b6000819050919050565b6110ce816110bb565b81146110d957600080fd5b50565b6000813590506110eb816110c5565b92915050565b600060208284031215611107576111066110b6565b5b6000611115848285016110dc565b91505092915050565b611127816110bb565b82525050565b6000602082019050611142600083018461111e565b92915050565b600073ffffffffffffffffffffffffffffffffffffffff82169050919050565b600061117382611148565b9050919050565b61118381611168565b82525050565b600060208201905061119e600083018461117a565b92915050565b600081519050919050565b600082825260208201905092915050565b6000819050602082019050919050565b6111d981611168565b82525050565b60006111eb83836111d0565b60208301905092915050565b6000602082019050919050565b600061120f826111a4565b61121981856111af565b9350611224836111c0565b8060005b8381101561125557815161123c88826111df565b9750611247836111f7565b925050600181019050611228565b5085935050505092915050565b6000602082019050818103600083015261127c8184611204565b905092915050565b60008115159050919050565b61129981611284565b82525050565b60006080820190506112b4600083018761111e565b6112c1602083018661111e565b6112ce6040830185611290565b6112db6060830184611290565b95945050505050565b6112ed81611168565b81146112f857600080fd5b50565b60008135905061130a816112e4565b92915050565b600060208284031215611326576113256110b6565b5b6000611334848285016112fb565b91505092915050565b600082825260208201905092915050565b7f496e73756666696369656e742062616c616e6365000000000000000000000000600082015250565b600061138460148361133d565b915061138f8261134e565b602082019050919050565b600060208201905081810360008301526113b381611377565b9050919050565b7f4e6f206163746976652067616d652073657373696f6e73000000000000000000600082015250565b60006113f060178361133d565b91506113fb826113ba565b602082019050919050565b6000602082019050818103600083015261141f816113e3565b9050919050565b7f4e487b7100000000000000000000000000000000000000000000000000000000600052601160045260246000fd5b6000611460826110bb565b915061146b836110bb565b925082820390508181111561148357611482611426565b5b92915050565b7f4e487b7100000000000000000000000000000000000000000000000000000000600052603260045260246000fd5b7f53657373696f6e20616c726561647920636f6d706c6574656400000000000000600082015250565b60006114ee60198361133d565b91506114f9826114b8565b602082019050919050565b6000602082019050818103600083015261151d816114e1565b9050919050565b600061152f826110bb565b915061153a836110bb565b925082820190508082111561155257611551611426565b5b92915050565b600081549050919050565b60008190508160005260206000209050919050565b60008160001c9050919050565b600073ffffffffffffffffffffffffffffffffffffffff82169050919050565b60006115b86115b383611578565b611585565b9050919050565b60006115cb82546115a5565b9050919050565b6000600182019050919050565b60006115ea82611558565b6115f481856111af565b93506115ff83611563565b8060005b8381101561163757611614826115bf565b61161e88826111df565b9750611629836115d2565b925050600181019050611603565b5085935050505092915050565b600081549050919050565b600082825260208201905092915050565b60008190508160005260206000209050919050565b61167e816110bb565b82525050565b60006116908383611675565b60208301905092915050565b6000819050919050565b60006116b96116b483611578565b61169c565b9050919050565b60006116cc82546116a6565b9050919050565b6000600182019050919050565b60006116eb82611644565b6116f5818561164f565b935061170083611660565b8060005b8381101561173857611715826116c0565b61171f8882611684565b975061172a836116d3565b925050600181019050611704565b5085935050505092915050565b6000604082019050818103600083015261175f81856115df565b9050818103602083015261177381846116e0565b90509392505050565b6000604082019050611791600083018561111e565b61179e602083018461111e565b9392505050565b7f47616d65206973207374696c6c2072756e6e696e670000000000000000000000600082015250565b60006117db60158361133d565b91506117e6826117a5565b602082019050919050565b6000602082019050818103600083015261180a816117ce565b9050919050565b7f47616d65206e6f74207374617274656400000000000000000000000000000000600082015250565b600061184760108361133d565b915061185282611811565b602082019050919050565b600060208201905081810360008301526118768161183a565b9050919050565b7f546f74616c20706f74206973207a65726f000000000000000000000000000000600082015250565b60006118b360118361133d565b91506118be8261187d565b602082019050919050565b600060208201905081810360008301526118e2816118a6565b9050919050565b6000819050919050565b6119046118ff826110bb565b6118e9565b82525050565b600061191682856118f3565b60208201915061192682846118f3565b6020820191508190509392505050565b7f4e487b7100000000000000000000000000000000000000000000000000000000600052601260045260246000fd5b6000611970826110bb565b915061197b836110bb565b92508261198b5761198a611936565b5b828206905092915050565b60006119a1826110bb565b91506119ac836110bb565b92508282026119ba816110bb565b915082820484148315176119d1576119d0611426565b5b5092915050565b60006119e3826110bb565b91506119ee836110bb565b9250826119fe576119fd611936565b5b828204905092915050565b6000604082019050611a1e600083018561111e565b8181036020830152611a3081846115df565b90509392505050565b6000819050919050565b6000819050919050565b6000611a68611a63611a5e84611a39565b611a43565b6110bb565b9050919050565b611a7881611a4d565b82525050565b6000604082019050611a936000830185611a6f565b611aa06020830184611a6f565b9392505050565b7f496e73756666696369656e742066756e6473206f6e2062616c616e6365000000600082015250565b6000611add601d8361133d565b9150611ae882611aa7565b602082019050919050565b60006020820190508181036000830152611b0c81611ad0565b9050919050565b7f4d7573742073656e642045544800000000000000000000000000000000000000600082015250565b6000611b49600d8361133d565b9150611b5482611b13565b602082019050919050565b60006020820190508181036000830152611b7881611b3c565b905091905056fea2646970667358221220d6297658fb05908dbd02740607bdbbbb821872fc30a6e91dea034fa240329b8264736f6c63430008180033",
  "linkReferences": {},
  "deployedLinkReferences": {}
}