{
  "_format": "hh-sol-artifact-1",
  "contractName": "WheelOfFortune",
  "sourceName": "contracts/WheelOfFortune/WheelOfFortune.sol",
  "abi": [
    {
      "inputs": [],
      "stateMutability": "nonpayable",
      "type": "constructor"
    },
    {
      "anonymous": false,
      "inputs": [
        {
          "indexed": true,
          "internalType": "address",
          "name": "user",
          "type": "address"
        },
        {
          "indexed": false,
          "internalType": "uint256",
          "name": "amount",
          "type": "uint256"
        }
      ],
      "name": "BetPlaced",
      "type": "event"
    },
    {
      "anonymous": false,
      "inputs": [
        {
          "indexed": true,
          "internalType": "address",
          "name": "user",
          "type": "address"
        },
        {
          "indexed": false,
          "internalType": "uint256",
          "name": "amount",
          "type": "uint256"
        }
      ],
      "name": "Deposit",
      "type": "event"
    },
    {
      "anonymous": false,
      "inputs": [
        {
          "indexed": true,
          "internalType": "address",
          "name": "winner",
          "type": "address"
        },
        {
          "indexed": false,
          "internalType": "uint256",
          "name": "totalAmount",
          "type": "uint256"
        },
        {
          "indexed": false,
          "internalType": "address[]",
          "name": "participants",
          "type": "address[]"
        }
      ],
      "name": "GameResult",
      "type": "event"
    },
    {
      "anonymous": false,
      "inputs": [
        {
          "indexed": false,
          "internalType": "uint256",
          "name": "endsAt",
          "type": "uint256"
        }
      ],
      "name": "GameStarted",
      "type": "event"
    },
    {
      "anonymous": false,
      "inputs": [
        {
          "indexed": false,
          "internalType": "address[]",
          "name": "participants",
          "type": "address[]"
        },
        {
          "indexed": false,
          "internalType": "uint256[]",
          "name": "bets",
          "type": "uint256[]"
        }
      ],
      "name": "ParticipantsUpdated",
      "type": "event"
    },
    {
      "anonymous": false,
      "inputs": [
        {
          "indexed": false,
          "internalType": "uint256",
          "name": "newTotalPot",
          "type": "uint256"
        },
        {
          "indexed": false,
          "internalType": "uint256",
          "name": "participantCount",
          "type": "uint256"
        }
      ],
      "name": "TotalUpdate",
      "type": "event"
    },
    {
      "anonymous": false,
      "inputs": [
        {
          "indexed": true,
          "internalType": "address",
          "name": "user",
          "type": "address"
        },
        {
          "indexed": false,
          "internalType": "uint256",
          "name": "amount",
          "type": "uint256"
        }
      ],
      "name": "Withdraw",
      "type": "event"
    },
    {
      "inputs": [
        {
          "internalType": "uint256",
          "name": "",
          "type": "uint256"
        }
      ],
      "name": "GameSessions",
      "outputs": [
        {
          "internalType": "uint256",
          "name": "totalPot",
          "type": "uint256"
        },
        {
          "internalType": "address",
          "name": "winner",
          "type": "address"
        },
        {
          "internalType": "uint256",
          "name": "endsGameAt",
          "type": "uint256"
        },
        {
          "internalType": "bool",
          "name": "start",
          "type": "bool"
        },
        {
          "internalType": "bool",
          "name": "stopped",
          "type": "bool"
        }
      ],
      "stateMutability": "view",
      "type": "function"
    },
    {
      "inputs": [
        {
          "internalType": "address",
          "name": "",
          "type": "address"
        }
      ],
      "name": "balance",
      "outputs": [
        {
          "internalType": "uint256",
          "name": "",
          "type": "uint256"
        }
      ],
      "stateMutability": "view",
      "type": "function"
    },
    {
      "inputs": [],
      "name": "createGameSession",
      "outputs": [],
      "stateMutability": "nonpayable",
      "type": "function"
    },
    {
      "inputs": [],
      "name": "deposit",
      "outputs": [],
      "stateMutability": "payable",
      "type": "function"
    },
    {
      "inputs": [],
      "name": "getBalance",
      "outputs": [
        {
          "internalType": "uint256",
          "name": "",
          "type": "uint256"
        }
      ],
      "stateMutability": "view",
      "type": "function"
    },
    {
      "inputs": [],
      "name": "getParcticipants",
      "outputs": [
        {
          "internalType": "address[]",
          "name": "",
          "type": "address[]"
        }
      ],
      "stateMutability": "view",
      "type": "function"
    },
    {
      "inputs": [],
      "name": "getTotalPot",
      "outputs": [
        {
          "internalType": "uint256",
          "name": "",
          "type": "uint256"
        }
      ],
      "stateMutability": "view",
      "type": "function"
    },
    {
      "inputs": [
        {
          "internalType": "uint256",
          "name": "amount",
          "type": "uint256"
        }
      ],
      "name": "placeBet",
      "outputs": [],
      "stateMutability": "nonpayable",
      "type": "function"
    },
    {
      "inputs": [],
      "name": "spinWheel",
      "outputs": [],
      "stateMutability": "nonpayable",
      "type": "function"
    },
    {
      "inputs": [
        {
          "internalType": "uint256",
          "name": "amount",
          "type": "uint256"
        }
      ],
      "name": "withdraw",
      "outputs": [],
      "stateMutability": "nonpayable",
      "type": "function"
    }
  ],
  "bytecode": "0x60806040523480156200001157600080fd5b50336000806101000a81548173ffffffffffffffffffffffffffffffffffffffff021916908373ffffffffffffffffffffffffffffffffffffffff160217905550620000626200006860201b60201c565b620005a0565b60008054906101000a900473ffffffffffffffffffffffffffffffffffffffff1673ffffffffffffffffffffffffffffffffffffffff163373ffffffffffffffffffffffffffffffffffffffff1614620000f9576040517f08c379a0000000000000000000000000000000000000000000000000000000008152600401620000f09062000272565b60405180910390fd5b6000600260018160018154018082558091505003906000526020600020906007020190506000816005018190555060008160060160006101000a81548160ff02191690831515021790555060008160060160016101000a81548160ff0219169083151502179055507fc53013643f2ae423cf038b583fa3c8dff5d684aeafefd492a6f979001519555381600001826001016040516200019a92919062000527565b60405180910390a17f7f81ee5f85b46a2660000cf726598f44ce0e9035fede5efba6fa82213475a77281600301548260000180549050604051620001e092919062000573565b60405180910390a150565b600082825260208201905092915050565b7f4f6e6c7920746865206f776e65722063616e2063616c6c20746869732066756e60008201527f6374696f6e000000000000000000000000000000000000000000000000000000602082015250565b60006200025a602583620001eb565b91506200026782620001fc565b604082019050919050565b600060208201905081810360008301526200028d816200024b565b9050919050565b600081549050919050565b600082825260208201905092915050565b60008190508160005260206000209050919050565b600073ffffffffffffffffffffffffffffffffffffffff82169050919050565b6000620002f282620002c5565b9050919050565b6200030481620002e5565b82525050565b6000620003188383620002f9565b60208301905092915050565b60008160001c9050919050565b600073ffffffffffffffffffffffffffffffffffffffff82169050919050565b600062000368620003628362000324565b62000331565b9050919050565b60006200037d825462000351565b9050919050565b6000600182019050919050565b60006200039e8262000294565b620003aa81856200029f565b9350620003b783620002b0565b8060005b83811015620003f757620003cf826200036f565b620003db88826200030a565b9750620003e88362000384565b925050600181019050620003bb565b5085935050505092915050565b600081549050919050565b600082825260208201905092915050565b60008190508160005260206000209050919050565b6000819050919050565b6200044a8162000435565b82525050565b60006200045e83836200043f565b60208301905092915050565b6000819050919050565b60006200048b620004858362000324565b6200046a565b9050919050565b6000620004a0825462000474565b9050919050565b6000600182019050919050565b6000620004c18262000404565b620004cd81856200040f565b9350620004da8362000420565b8060005b838110156200051a57620004f28262000492565b620004fe888262000450565b97506200050b83620004a7565b925050600181019050620004de565b5085935050505092915050565b6000604082019050818103600083015262000543818562000391565b90508181036020830152620005598184620004b4565b90509392505050565b6200056d8162000435565b82525050565b60006040820190506200058a600083018562000562565b62000599602083018462000562565b9392505050565b611db880620005b06000396000f3fe6080604052600436106100915760003560e01c806348a61de41161005957806348a61de4146101555780635c28a4071461018057806395e6a53c14610197578063d0e30db0146101d8578063e3d670d7146101e257610091565b806310fe7c481461009657806312065fe0146100bf57806315ecef92146100ea5780632e1a7d4d14610101578063480bc31f1461012a575b600080fd5b3480156100a257600080fd5b506100bd60048036038101906100b891906112dd565b61021f565b005b3480156100cb57600080fd5b506100d46107af565b6040516100e19190611319565b60405180910390f35b3480156100f657600080fd5b506100ff6107f6565b005b34801561010d57600080fd5b50610128600480360381019061012391906112dd565b610c9a565b005b34801561013657600080fd5b5061013f610e0a565b60405161014c9190611319565b60405180910390f35b34801561016157600080fd5b5061016a610e95565b6040516101779190611424565b60405180910390f35b34801561018c57600080fd5b50610195610fa5565b005b3480156101a357600080fd5b506101be60048036038101906101b991906112dd565b611121565b6040516101cf959493929190611470565b60405180910390f35b6101e06111a1565b005b3480156101ee57600080fd5b50610209600480360381019061020491906114ef565b61128a565b6040516102169190611319565b60405180910390f35b80600160003373ffffffffffffffffffffffffffffffffffffffff1673ffffffffffffffffffffffffffffffffffffffff1681526020019081526020016000205410156102a1576040517f08c379a000000000000000000000000000000000000000000000000000000000815260040161029890611579565b60405180910390fd5b6000600280549050116102e9576040517f08c379a00000000000000000000000000000000000000000000000000000000081526004016102e0906115e5565b60405180910390fd5b6000600260016002805490506102ff9190611634565b815481106103105761030f611668565b5b906000526020600020906007020190508060060160019054906101000a900460ff1615610372576040517f08c379a0000000000000000000000000000000000000000000000000000000008152600401610369906116e3565b60405180910390fd5b81600160003373ffffffffffffffffffffffffffffffffffffffff1673ffffffffffffffffffffffffffffffffffffffff16815260200190815260200160002060008282546103c19190611634565b925050819055506000808260020160003373ffffffffffffffffffffffffffffffffffffffff1673ffffffffffffffffffffffffffffffffffffffff16815260200190815260200160002054148015610499575060008260000180549050148061049857503373ffffffffffffffffffffffffffffffffffffffff168260000160008154811061045457610453611668565b5b9060005260206000200160009054906101000a900473ffffffffffffffffffffffffffffffffffffffff1673ffffffffffffffffffffffffffffffffffffffff1614155b5b1561059b5781600001339080600181540180825580915050600190039060005260206000200160009091909190916101000a81548173ffffffffffffffffffffffffffffffffffffffff021916908373ffffffffffffffffffffffffffffffffffffffff16021790555081600101839080600181540180825580915050600190039060005260206000200160009091909190915055600182600001805490506105429190611634565b90506001816105519190611703565b8260020160003373ffffffffffffffffffffffffffffffffffffffff1673ffffffffffffffffffffffffffffffffffffffff16815260200190815260200160002081905550610623565b60018260020160003373ffffffffffffffffffffffffffffffffffffffff1673ffffffffffffffffffffffffffffffffffffffff168152602001908152602001600020546105e99190611634565b90508282600101828154811061060257610601611668565b5b90600052602060002001600082825461061b9190611703565b925050819055505b828260030160008282546106379190611703565b925050819055507fc53013643f2ae423cf038b583fa3c8dff5d684aeafefd492a6f97900151955538260000183600101604051610675929190611924565b60405180910390a13373ffffffffffffffffffffffffffffffffffffffff167f43e08d78302cdf9c94e1ffd293c2a3696139ee41cf3199b6f5eed9c7f6cc6090846040516106c39190611319565b60405180910390a27f7f81ee5f85b46a2660000cf726598f44ce0e9035fede5efba6fa82213475a7728260030154836000018054905060405161070792919061195b565b60405180910390a1600382600001805490501015801561073657508160060160009054906101000a900460ff16155b156107aa5760018260060160006101000a81548160ff02191690831515021790555061012c426107669190611703565b82600501819055507f50ad08f58a27f2851d7e3a1b3a6a46b290f2ce677e99642d30ff639721e7779082600501546040516107a19190611319565b60405180910390a15b505050565b6000600160003373ffffffffffffffffffffffffffffffffffffffff1673ffffffffffffffffffffffffffffffffffffffff16815260200190815260200160002054905090565b60008054906101000a900473ffffffffffffffffffffffffffffffffffffffff1673ffffffffffffffffffffffffffffffffffffffff163373ffffffffffffffffffffffffffffffffffffffff1614610884576040517f08c379a000000000000000000000000000000000000000000000000000000000815260040161087b906119f6565b60405180910390fd5b6000600280549050116108cc576040517f08c379a00000000000000000000000000000000000000000000000000000000081526004016108c3906115e5565b60405180910390fd5b6000600260016002805490506108e29190611634565b815481106108f3576108f2611668565b5b90600052602060002090600702019050806005015442101561094a576040517f08c379a000000000000000000000000000000000000000000000000000000000815260040161094190611a62565b60405180910390fd5b8060060160009054906101000a900460ff1661099b576040517f08c379a000000000000000000000000000000000000000000000000000000000815260040161099290611ace565b60405180910390fd5b8060060160019054906101000a900460ff16156109ed576040517f08c379a00000000000000000000000000000000000000000000000000000000081526004016109e4906116e3565b60405180910390fd5b6000816003015411610a34576040517f08c379a0000000000000000000000000000000000000000000000000000000008152600401610a2b90611b3a565b60405180910390fd5b600081600301544442604051602001610a4e929190611b7b565b6040516020818303038152906040528051906020012060001c610a719190611bd6565b90506000805b8360000180549050811015610bfc57836001018181548110610a9c57610a9b611668565b5b906000526020600020015482610ab29190611703565b915081831015610bef57836000018181548110610ad257610ad1611668565b5b9060005260206000200160009054906101000a900473ffffffffffffffffffffffffffffffffffffffff168460040160006101000a81548173ffffffffffffffffffffffffffffffffffffffff021916908373ffffffffffffffffffffffffffffffffffffffff16021790555060006064600a8660030154610b549190611c07565b610b5e9190611c49565b8560030154610b6d9190611634565b905080600160008760040160009054906101000a900473ffffffffffffffffffffffffffffffffffffffff1673ffffffffffffffffffffffffffffffffffffffff1673ffffffffffffffffffffffffffffffffffffffff1681526020019081526020016000206000828254610be29190611703565b9250508190555050610bfc565b8080600101915050610a77565b5060018360060160016101000a81548160ff0219169083151502179055508260040160009054906101000a900473ffffffffffffffffffffffffffffffffffffffff1673ffffffffffffffffffffffffffffffffffffffff167fc75dae78fa02e9034627e5e4bb23cd6ec93489055f8996cae27760fbd05e2564846003015485600001604051610c8d929190611c7a565b60405180910390a2505050565b80600160003373ffffffffffffffffffffffffffffffffffffffff1673ffffffffffffffffffffffffffffffffffffffff168152602001908152602001600020541015610d1c576040517f08c379a0000000000000000000000000000000000000000000000000000000008152600401610d1390611cf6565b60405180910390fd5b80600160003373ffffffffffffffffffffffffffffffffffffffff1673ffffffffffffffffffffffffffffffffffffffff1681526020019081526020016000206000828254610d6b9190611634565b925050819055503373ffffffffffffffffffffffffffffffffffffffff166108fc829081150290604051600060405180830381858888f19350505050158015610db8573d6000803e3d6000fd5b503373ffffffffffffffffffffffffffffffffffffffff167f884edad9ce6fa2440d8a54cc123490eb96d2768479d49ff9c7366125a942436482604051610dff9190611319565b60405180910390a250565b60008060028054905011610e53576040517f08c379a0000000000000000000000000000000000000000000000000000000008152600401610e4a906115e5565b60405180910390fd5b600060026001600280549050610e699190611634565b81548110610e7a57610e79611668565b5b90600052602060002090600702019050806003015491505090565b6060600060028054905011610edf576040517f08c379a0000000000000000000000000000000000000000000000000000000008152600401610ed6906115e5565b60405180910390fd5b600060026001600280549050610ef59190611634565b81548110610f0657610f05611668565b5b9060005260206000209060070201905080600001805480602002602001604051908101604052809291908181526020018280548015610f9a57602002820191906000526020600020905b8160009054906101000a900473ffffffffffffffffffffffffffffffffffffffff1673ffffffffffffffffffffffffffffffffffffffff1681526020019060010190808311610f50575b505050505091505090565b60008054906101000a900473ffffffffffffffffffffffffffffffffffffffff1673ffffffffffffffffffffffffffffffffffffffff163373ffffffffffffffffffffffffffffffffffffffff1614611033576040517f08c379a000000000000000000000000000000000000000000000000000000000815260040161102a906119f6565b60405180910390fd5b6000600260018160018154018082558091505003906000526020600020906007020190506000816005018190555060008160060160006101000a81548160ff02191690831515021790555060008160060160016101000a81548160ff0219169083151502179055507fc53013643f2ae423cf038b583fa3c8dff5d684aeafefd492a6f979001519555381600001826001016040516110d2929190611924565b60405180910390a17f7f81ee5f85b46a2660000cf726598f44ce0e9035fede5efba6fa82213475a7728160030154826000018054905060405161111692919061195b565b60405180910390a150565b6002818154811061113157600080fd5b90600052602060002090600702016000915090508060030154908060040160009054906101000a900473ffffffffffffffffffffffffffffffffffffffff16908060050154908060060160009054906101000a900460ff16908060060160019054906101000a900460ff16905085565b600034116111e4576040517f08c379a00000000000000000000000000000000000000000000000000000000081526004016111db90611d62565b60405180910390fd5b34600160003373ffffffffffffffffffffffffffffffffffffffff1673ffffffffffffffffffffffffffffffffffffffff16815260200190815260200160002060008282546112339190611703565b925050819055503373ffffffffffffffffffffffffffffffffffffffff167fe1fffcc4923d04b559f4d29a8bfc6cda04eb5b0d3c460751c2402c5c5cc9109c346040516112809190611319565b60405180910390a2565b60016020528060005260406000206000915090505481565b600080fd5b6000819050919050565b6112ba816112a7565b81146112c557600080fd5b50565b6000813590506112d7816112b1565b92915050565b6000602082840312156112f3576112f26112a2565b5b6000611301848285016112c8565b91505092915050565b611313816112a7565b82525050565b600060208201905061132e600083018461130a565b92915050565b600081519050919050565b600082825260208201905092915050565b6000819050602082019050919050565b600073ffffffffffffffffffffffffffffffffffffffff82169050919050565b600061138b82611360565b9050919050565b61139b81611380565b82525050565b60006113ad8383611392565b60208301905092915050565b6000602082019050919050565b60006113d182611334565b6113db818561133f565b93506113e683611350565b8060005b838110156114175781516113fe88826113a1565b9750611409836113b9565b9250506001810190506113ea565b5085935050505092915050565b6000602082019050818103600083015261143e81846113c6565b905092915050565b61144f81611380565b82525050565b60008115159050919050565b61146a81611455565b82525050565b600060a082019050611485600083018861130a565b6114926020830187611446565b61149f604083018661130a565b6114ac6060830185611461565b6114b96080830184611461565b9695505050505050565b6114cc81611380565b81146114d757600080fd5b50565b6000813590506114e9816114c3565b92915050565b600060208284031215611505576115046112a2565b5b6000611513848285016114da565b91505092915050565b600082825260208201905092915050565b7f496e73756666696369656e742062616c616e6365000000000000000000000000600082015250565b600061156360148361151c565b915061156e8261152d565b602082019050919050565b6000602082019050818103600083015261159281611556565b9050919050565b7f4e6f206163746976652067616d652073657373696f6e73000000000000000000600082015250565b60006115cf60178361151c565b91506115da82611599565b602082019050919050565b600060208201905081810360008301526115fe816115c2565b9050919050565b7f4e487b7100000000000000000000000000000000000000000000000000000000600052601160045260246000fd5b600061163f826112a7565b915061164a836112a7565b925082820390508181111561166257611661611605565b5b92915050565b7f4e487b7100000000000000000000000000000000000000000000000000000000600052603260045260246000fd5b7f53657373696f6e20616c726561647920636f6d706c6574656400000000000000600082015250565b60006116cd60198361151c565b91506116d882611697565b602082019050919050565b600060208201905081810360008301526116fc816116c0565b9050919050565b600061170e826112a7565b9150611719836112a7565b925082820190508082111561173157611730611605565b5b92915050565b600081549050919050565b60008190508160005260206000209050919050565b60008160001c9050919050565b600073ffffffffffffffffffffffffffffffffffffffff82169050919050565b600061179761179283611757565b611764565b9050919050565b60006117aa8254611784565b9050919050565b6000600182019050919050565b60006117c982611737565b6117d3818561133f565b93506117de83611742565b8060005b83811015611816576117f38261179e565b6117fd88826113a1565b9750611808836117b1565b9250506001810190506117e2565b5085935050505092915050565b600081549050919050565b600082825260208201905092915050565b60008190508160005260206000209050919050565b61185d816112a7565b82525050565b600061186f8383611854565b60208301905092915050565b6000819050919050565b600061189861189383611757565b61187b565b9050919050565b60006118ab8254611885565b9050919050565b6000600182019050919050565b60006118ca82611823565b6118d4818561182e565b93506118df8361183f565b8060005b83811015611917576118f48261189f565b6118fe8882611863565b9750611909836118b2565b9250506001810190506118e3565b5085935050505092915050565b6000604082019050818103600083015261193e81856117be565b9050818103602083015261195281846118bf565b90509392505050565b6000604082019050611970600083018561130a565b61197d602083018461130a565b9392505050565b7f4f6e6c7920746865206f776e65722063616e2063616c6c20746869732066756e60008201527f6374696f6e000000000000000000000000000000000000000000000000000000602082015250565b60006119e060258361151c565b91506119eb82611984565b604082019050919050565b60006020820190508181036000830152611a0f816119d3565b9050919050565b7f47616d65206973207374696c6c2072756e6e696e670000000000000000000000600082015250565b6000611a4c60158361151c565b9150611a5782611a16565b602082019050919050565b60006020820190508181036000830152611a7b81611a3f565b9050919050565b7f47616d65206e6f74207374617274656400000000000000000000000000000000600082015250565b6000611ab860108361151c565b9150611ac382611a82565b602082019050919050565b60006020820190508181036000830152611ae781611aab565b9050919050565b7f546f74616c20706f74206973207a65726f000000000000000000000000000000600082015250565b6000611b2460118361151c565b9150611b2f82611aee565b602082019050919050565b60006020820190508181036000830152611b5381611b17565b9050919050565b6000819050919050565b611b75611b70826112a7565b611b5a565b82525050565b6000611b878285611b64565b602082019150611b978284611b64565b6020820191508190509392505050565b7f4e487b7100000000000000000000000000000000000000000000000000000000600052601260045260246000fd5b6000611be1826112a7565b9150611bec836112a7565b925082611bfc57611bfb611ba7565b5b828206905092915050565b6000611c12826112a7565b9150611c1d836112a7565b9250828202611c2b816112a7565b91508282048414831517611c4257611c41611605565b5b5092915050565b6000611c54826112a7565b9150611c5f836112a7565b925082611c6f57611c6e611ba7565b5b828204905092915050565b6000604082019050611c8f600083018561130a565b8181036020830152611ca181846117be565b90509392505050565b7f496e73756666696369656e742066756e6473206f6e2062616c616e6365000000600082015250565b6000611ce0601d8361151c565b9150611ceb82611caa565b602082019050919050565b60006020820190508181036000830152611d0f81611cd3565b9050919050565b7f4d7573742073656e642045544800000000000000000000000000000000000000600082015250565b6000611d4c600d8361151c565b9150611d5782611d16565b602082019050919050565b60006020820190508181036000830152611d7b81611d3f565b905091905056fea26469706673582212203548e5e4851eef033f2512ebe138de42db42d2460c0ab613704aaab5e6ed019b64736f6c63430008180033",
  "linkReferences": {},
  "deployedLinkReferences": {}
}