{
  "_format": "hh-sol-artifact-1",
  "contractName": "WheelOfFortune",
  "sourceName": "contracts/WheelOfFortune/WheelOfFortune.sol",
  "abi": [
    {
      "inputs": [],
      "stateMutability": "nonpayable",
      "type": "constructor"
    },
    {
      "anonymous": false,
      "inputs": [
        {
          "indexed": true,
          "internalType": "address",
          "name": "user",
          "type": "address"
        },
        {
          "indexed": false,
          "internalType": "uint256",
          "name": "amount",
          "type": "uint256"
        }
      ],
      "name": "BetPlaced",
      "type": "event"
    },
    {
      "anonymous": false,
      "inputs": [
        {
          "indexed": true,
          "internalType": "address",
          "name": "user",
          "type": "address"
        },
        {
          "indexed": false,
          "internalType": "uint256",
          "name": "amount",
          "type": "uint256"
        }
      ],
      "name": "Deposit",
      "type": "event"
    },
    {
      "anonymous": false,
      "inputs": [
        {
          "indexed": false,
          "internalType": "uint256",
          "name": "startAt",
          "type": "uint256"
        }
      ],
      "name": "GameFinished",
      "type": "event"
    },
    {
      "anonymous": false,
      "inputs": [
        {
          "indexed": true,
          "internalType": "address",
          "name": "winner",
          "type": "address"
        },
        {
          "indexed": false,
          "internalType": "uint256",
          "name": "totalAmount",
          "type": "uint256"
        },
        {
          "indexed": false,
          "internalType": "address[]",
          "name": "participants",
          "type": "address[]"
        }
      ],
      "name": "GameResult",
      "type": "event"
    },
    {
      "anonymous": false,
      "inputs": [
        {
          "indexed": false,
          "internalType": "uint256",
          "name": "endsAt",
          "type": "uint256"
        }
      ],
      "name": "GameStarted",
      "type": "event"
    },
    {
      "anonymous": false,
      "inputs": [
        {
          "indexed": false,
          "internalType": "uint256",
          "name": "newTotalPot",
          "type": "uint256"
        },
        {
          "indexed": false,
          "internalType": "uint256",
          "name": "participantCount",
          "type": "uint256"
        },
        {
          "indexed": false,
          "internalType": "address[]",
          "name": "participants",
          "type": "address[]"
        },
        {
          "indexed": false,
          "internalType": "uint256[]",
          "name": "bets",
          "type": "uint256[]"
        }
      ],
      "name": "TotalUpdate",
      "type": "event"
    },
    {
      "anonymous": false,
      "inputs": [
        {
          "indexed": true,
          "internalType": "address",
          "name": "user",
          "type": "address"
        },
        {
          "indexed": false,
          "internalType": "uint256",
          "name": "amount",
          "type": "uint256"
        }
      ],
      "name": "Withdraw",
      "type": "event"
    },
    {
      "anonymous": false,
      "inputs": [],
      "name": "WithdrawBet",
      "type": "event"
    },
    {
      "inputs": [
        {
          "internalType": "uint256",
          "name": "",
          "type": "uint256"
        }
      ],
      "name": "GameSessions",
      "outputs": [
        {
          "internalType": "uint256",
          "name": "totalPot",
          "type": "uint256"
        },
        {
          "internalType": "address",
          "name": "winner",
          "type": "address"
        },
        {
          "internalType": "uint256",
          "name": "endsGameAt",
          "type": "uint256"
        },
        {
          "internalType": "uint256",
          "name": "nextGameStartAt",
          "type": "uint256"
        },
        {
          "internalType": "bool",
          "name": "start",
          "type": "bool"
        },
        {
          "internalType": "bool",
          "name": "stopped",
          "type": "bool"
        }
      ],
      "stateMutability": "view",
      "type": "function"
    },
    {
      "inputs": [
        {
          "internalType": "address",
          "name": "",
          "type": "address"
        }
      ],
      "name": "balance",
      "outputs": [
        {
          "internalType": "uint256",
          "name": "",
          "type": "uint256"
        }
      ],
      "stateMutability": "view",
      "type": "function"
    },
    {
      "inputs": [],
      "name": "createGameSession",
      "outputs": [],
      "stateMutability": "nonpayable",
      "type": "function"
    },
    {
      "inputs": [],
      "name": "deposit",
      "outputs": [],
      "stateMutability": "payable",
      "type": "function"
    },
    {
      "inputs": [],
      "name": "getBalance",
      "outputs": [
        {
          "internalType": "uint256",
          "name": "",
          "type": "uint256"
        }
      ],
      "stateMutability": "view",
      "type": "function"
    },
    {
      "inputs": [],
      "name": "getParcticipants",
      "outputs": [
        {
          "internalType": "address[]",
          "name": "",
          "type": "address[]"
        }
      ],
      "stateMutability": "view",
      "type": "function"
    },
    {
      "inputs": [],
      "name": "getTotalPot",
      "outputs": [
        {
          "internalType": "uint256",
          "name": "",
          "type": "uint256"
        }
      ],
      "stateMutability": "view",
      "type": "function"
    },
    {
      "inputs": [
        {
          "internalType": "uint256",
          "name": "amount",
          "type": "uint256"
        }
      ],
      "name": "placeBet",
      "outputs": [],
      "stateMutability": "nonpayable",
      "type": "function"
    },
    {
      "inputs": [],
      "name": "spinWheel",
      "outputs": [],
      "stateMutability": "nonpayable",
      "type": "function"
    },
    {
      "inputs": [
        {
          "internalType": "uint256",
          "name": "amount",
          "type": "uint256"
        }
      ],
      "name": "withdraw",
      "outputs": [],
      "stateMutability": "nonpayable",
      "type": "function"
    },
    {
      "inputs": [
        {
          "internalType": "uint256",
          "name": "amount",
          "type": "uint256"
        }
      ],
      "name": "withdrawBet",
      "outputs": [],
      "stateMutability": "nonpayable",
      "type": "function"
    }
  ],
  "bytecode": "0x60806040526001600060146101000a81548160ff0219169083151502179055503480156200002c57600080fd5b50336000806101000a81548173ffffffffffffffffffffffffffffffffffffffff021916908373ffffffffffffffffffffffffffffffffffffffff1602179055506200007d6200008360201b60201c565b620006a3565b60008054906101000a900473ffffffffffffffffffffffffffffffffffffffff1673ffffffffffffffffffffffffffffffffffffffff163373ffffffffffffffffffffffffffffffffffffffff161462000114576040517f08c379a00000000000000000000000000000000000000000000000000000000081526004016200010b9062000310565b60405180910390fd5b600060149054906101000a900460ff1662000166576040517f08c379a00000000000000000000000000000000000000000000000000000000081526004016200015d9062000382565b60405180910390fd5b60008060146101000a81548160ff0219169083151502179055506000600260018160018154018082558091505003906000526020600020906008020190506000816005018190555060008160070160006101000a81548160ff02191690831515021790555060008160070160016101000a81548160ff0219169083151502179055506000816003018190555060008160040160006101000a81548173ffffffffffffffffffffffffffffffffffffffff021916908373ffffffffffffffffffffffffffffffffffffffff1602179055507fa9b16ee27e98bfd24c40b4289407e13636636ebca0ece66df90cc6d126b471b68160030154826000018054905083600001846001016040516200027e949392919062000648565b60405180910390a150565b600082825260208201905092915050565b7f4f6e6c7920746865206f776e65722063616e2063616c6c20746869732066756e60008201527f6374696f6e000000000000000000000000000000000000000000000000000000602082015250565b6000620002f860258362000289565b915062000305826200029a565b604082019050919050565b600060208201905081810360008301526200032b81620002e9565b9050919050565b7f47616d652073617373696f6e206e6f74206f7665720000000000000000000000600082015250565b60006200036a60158362000289565b9150620003778262000332565b602082019050919050565b600060208201905081810360008301526200039d816200035b565b9050919050565b6000819050919050565b620003b981620003a4565b82525050565b600081549050919050565b600082825260208201905092915050565b60008190508160005260206000209050919050565b600073ffffffffffffffffffffffffffffffffffffffff82169050919050565b60006200041d82620003f0565b9050919050565b6200042f8162000410565b82525050565b600062000443838362000424565b60208301905092915050565b60008160001c9050919050565b600073ffffffffffffffffffffffffffffffffffffffff82169050919050565b6000620004936200048d836200044f565b6200045c565b9050919050565b6000620004a882546200047c565b9050919050565b6000600182019050919050565b6000620004c982620003bf565b620004d58185620003ca565b9350620004e283620003db565b8060005b838110156200052257620004fa826200049a565b62000506888262000435565b97506200051383620004af565b925050600181019050620004e6565b5085935050505092915050565b600081549050919050565b600082825260208201905092915050565b60008190508160005260206000209050919050565b6200056b81620003a4565b82525050565b60006200057f838362000560565b60208301905092915050565b6000819050919050565b6000620005ac620005a6836200044f565b6200058b565b9050919050565b6000620005c1825462000595565b9050919050565b6000600182019050919050565b6000620005e2826200052f565b620005ee81856200053a565b9350620005fb836200054b565b8060005b838110156200063b576200061382620005b3565b6200061f888262000571565b97506200062c83620005c8565b925050600181019050620005ff565b5085935050505092915050565b60006080820190506200065f6000830187620003ae565b6200066e6020830186620003ae565b8181036040830152620006828185620004bc565b90508181036060830152620006988184620005d5565b905095945050505050565b61263880620006b36000396000f3fe60806040526004361061009c5760003560e01c806348a61de41161006457806348a61de4146101605780635c28a4071461018b57806395e6a53c146101a2578063a2b1a2cc146101e4578063d0e30db01461020d578063e3d670d7146102175761009c565b806310fe7c48146100a157806312065fe0146100ca57806315ecef92146100f55780632e1a7d4d1461010c578063480bc31f14610135575b600080fd5b3480156100ad57600080fd5b506100c860048036038101906100c3919061197d565b610254565b005b3480156100d657600080fd5b506100df6107b4565b6040516100ec91906119b9565b60405180910390f35b34801561010157600080fd5b5061010a6107fb565b005b34801561011857600080fd5b50610133600480360381019061012e919061197d565b610d44565b005b34801561014157600080fd5b5061014a610eb4565b60405161015791906119b9565b60405180910390f35b34801561016c57600080fd5b50610175610f3f565b6040516101829190611ac4565b60405180910390f35b34801561019757600080fd5b506101a061104f565b005b3480156101ae57600080fd5b506101c960048036038101906101c4919061197d565b61124d565b6040516101db96959493929190611b10565b60405180910390f35b3480156101f057600080fd5b5061020b6004803603810190610206919061197d565b6112d3565b005b610215611841565b005b34801561022357600080fd5b5061023e60048036038101906102399190611b9d565b61192a565b60405161024b91906119b9565b60405180910390f35b80600160003373ffffffffffffffffffffffffffffffffffffffff1673ffffffffffffffffffffffffffffffffffffffff1681526020019081526020016000205410156102d6576040517f08c379a00000000000000000000000000000000000000000000000000000000081526004016102cd90611c27565b60405180910390fd5b60006002805490501161031e576040517f08c379a000000000000000000000000000000000000000000000000000000000815260040161031590611c93565b60405180910390fd5b6000600260016002805490506103349190611ce2565b8154811061034557610344611d16565b5b906000526020600020906008020190508060070160019054906101000a900460ff16156103a7576040517f08c379a000000000000000000000000000000000000000000000000000000000815260040161039e90611d91565b60405180910390fd5b81600160003373ffffffffffffffffffffffffffffffffffffffff1673ffffffffffffffffffffffffffffffffffffffff16815260200190815260200160002060008282546103f69190611ce2565b925050819055506000808260020160003373ffffffffffffffffffffffffffffffffffffffff1673ffffffffffffffffffffffffffffffffffffffff168152602001908152602001600020541480156104ce57506000826000018054905014806104cd57503373ffffffffffffffffffffffffffffffffffffffff168260000160008154811061048957610488611d16565b5b9060005260206000200160009054906101000a900473ffffffffffffffffffffffffffffffffffffffff1673ffffffffffffffffffffffffffffffffffffffff1614155b5b156105d05781600001339080600181540180825580915050600190039060005260206000200160009091909190916101000a81548173ffffffffffffffffffffffffffffffffffffffff021916908373ffffffffffffffffffffffffffffffffffffffff16021790555081600101839080600181540180825580915050600190039060005260206000200160009091909190915055600182600001805490506105779190611ce2565b90506001816105869190611db1565b8260020160003373ffffffffffffffffffffffffffffffffffffffff1673ffffffffffffffffffffffffffffffffffffffff16815260200190815260200160002081905550610658565b60018260020160003373ffffffffffffffffffffffffffffffffffffffff1673ffffffffffffffffffffffffffffffffffffffff1681526020019081526020016000205461061e9190611ce2565b90508282600101828154811061063757610636611d16565b5b9060005260206000200160008282546106509190611db1565b925050819055505b8282600301600082825461066c9190611db1565b925050819055503373ffffffffffffffffffffffffffffffffffffffff167f43e08d78302cdf9c94e1ffd293c2a3696139ee41cf3199b6f5eed9c7f6cc6090846040516106b991906119b9565b60405180910390a27fa9b16ee27e98bfd24c40b4289407e13636636ebca0ece66df90cc6d126b471b68260030154836000018054905084600001856001016040516107079493929190611fd2565b60405180910390a1600382600001805490501015801561073657508160070160009054906101000a900460ff16155b156107af5760018260070160006101000a81548160ff021916908315150217905550601e63ffffffff164261076b9190611db1565b82600501819055507f50ad08f58a27f2851d7e3a1b3a6a46b290f2ce677e99642d30ff639721e7779082600501546040516107a691906119b9565b60405180910390a15b505050565b6000600160003373ffffffffffffffffffffffffffffffffffffffff1673ffffffffffffffffffffffffffffffffffffffff16815260200190815260200160002054905090565b60008054906101000a900473ffffffffffffffffffffffffffffffffffffffff1673ffffffffffffffffffffffffffffffffffffffff163373ffffffffffffffffffffffffffffffffffffffff1614610889576040517f08c379a000000000000000000000000000000000000000000000000000000000815260040161088090612097565b60405180910390fd5b6000600280549050116108d1576040517f08c379a00000000000000000000000000000000000000000000000000000000081526004016108c890611c93565b60405180910390fd5b6000600260016002805490506108e79190611ce2565b815481106108f8576108f7611d16565b5b90600052602060002090600802019050806005015442101561094f576040517f08c379a000000000000000000000000000000000000000000000000000000000815260040161094690612103565b60405180910390fd5b8060070160009054906101000a900460ff166109a0576040517f08c379a00000000000000000000000000000000000000000000000000000000081526004016109979061216f565b60405180910390fd5b8060070160019054906101000a900460ff16156109f2576040517f08c379a00000000000000000000000000000000000000000000000000000000081526004016109e990611d91565b60405180910390fd5b6000816003015411610a39576040517f08c379a0000000000000000000000000000000000000000000000000000000008152600401610a30906121db565b60405180910390fd5b600081600301544442604051602001610a5392919061221c565b6040516020818303038152906040528051906020012060001c610a769190612277565b90506000805b8360000180549050811015610c3557836001018181548110610aa157610aa0611d16565b5b906000526020600020015482610ab79190611db1565b915081831015610c2857836000018181548110610ad757610ad6611d16565b5b9060005260206000200160009054906101000a900473ffffffffffffffffffffffffffffffffffffffff168460040160006101000a81548173ffffffffffffffffffffffffffffffffffffffff021916908373ffffffffffffffffffffffffffffffffffffffff16021790555060006064600f60ff16866001018481548110610b6357610b62611d16565b5b90600052602060002001548760030154610b7d9190611ce2565b610b8791906122a8565b610b9191906122ea565b90506000818660030154610ba59190611ce2565b905080600160008860040160009054906101000a900473ffffffffffffffffffffffffffffffffffffffff1673ffffffffffffffffffffffffffffffffffffffff1673ffffffffffffffffffffffffffffffffffffffff1681526020019081526020016000206000828254610c1a9190611db1565b925050819055505050610c35565b8080600101915050610a7c565b5060018360070160016101000a81548160ff0219169083151502179055508260040160009054906101000a900473ffffffffffffffffffffffffffffffffffffffff1673ffffffffffffffffffffffffffffffffffffffff167fc75dae78fa02e9034627e5e4bb23cd6ec93489055f8996cae27760fbd05e2564846003015485600001604051610cc692919061231b565b60405180910390a2600a63ffffffff1642610ce19190611db1565b83600601819055507f6543ec12c6e53f26532beb5289ef5732dcd77c2e9e9921ae42b695905f5e84c08360060154604051610d1c91906119b9565b60405180910390a16001600060146101000a81548160ff021916908315150217905550505050565b80600160003373ffffffffffffffffffffffffffffffffffffffff1673ffffffffffffffffffffffffffffffffffffffff168152602001908152602001600020541015610dc6576040517f08c379a0000000000000000000000000000000000000000000000000000000008152600401610dbd90612397565b60405180910390fd5b80600160003373ffffffffffffffffffffffffffffffffffffffff1673ffffffffffffffffffffffffffffffffffffffff1681526020019081526020016000206000828254610e159190611ce2565b925050819055503373ffffffffffffffffffffffffffffffffffffffff166108fc829081150290604051600060405180830381858888f19350505050158015610e62573d6000803e3d6000fd5b503373ffffffffffffffffffffffffffffffffffffffff167f884edad9ce6fa2440d8a54cc123490eb96d2768479d49ff9c7366125a942436482604051610ea991906119b9565b60405180910390a250565b60008060028054905011610efd576040517f08c379a0000000000000000000000000000000000000000000000000000000008152600401610ef490611c93565b60405180910390fd5b600060026001600280549050610f139190611ce2565b81548110610f2457610f23611d16565b5b90600052602060002090600802019050806003015491505090565b6060600060028054905011610f89576040517f08c379a0000000000000000000000000000000000000000000000000000000008152600401610f8090611c93565b60405180910390fd5b600060026001600280549050610f9f9190611ce2565b81548110610fb057610faf611d16565b5b906000526020600020906008020190508060000180548060200260200160405190810160405280929190818152602001828054801561104457602002820191906000526020600020905b8160009054906101000a900473ffffffffffffffffffffffffffffffffffffffff1673ffffffffffffffffffffffffffffffffffffffff1681526020019060010190808311610ffa575b505050505091505090565b60008054906101000a900473ffffffffffffffffffffffffffffffffffffffff1673ffffffffffffffffffffffffffffffffffffffff163373ffffffffffffffffffffffffffffffffffffffff16146110dd576040517f08c379a00000000000000000000000000000000000000000000000000000000081526004016110d490612097565b60405180910390fd5b600060149054906101000a900460ff1661112c576040517f08c379a000000000000000000000000000000000000000000000000000000000815260040161112390612403565b60405180910390fd5b60008060146101000a81548160ff0219169083151502179055506000600260018160018154018082558091505003906000526020600020906008020190506000816005018190555060008160070160006101000a81548160ff02191690831515021790555060008160070160016101000a81548160ff0219169083151502179055506000816003018190555060008160040160006101000a81548173ffffffffffffffffffffffffffffffffffffffff021916908373ffffffffffffffffffffffffffffffffffffffff1602179055507fa9b16ee27e98bfd24c40b4289407e13636636ebca0ece66df90cc6d126b471b68160030154826000018054905083600001846001016040516112429493929190611fd2565b60405180910390a150565b6002818154811061125d57600080fd5b90600052602060002090600802016000915090508060030154908060040160009054906101000a900473ffffffffffffffffffffffffffffffffffffffff16908060050154908060060154908060070160009054906101000a900460ff16908060070160019054906101000a900460ff16905086565b60006002805490501161131b576040517f08c379a000000000000000000000000000000000000000000000000000000000815260040161131290611c93565b60405180910390fd5b6000600260016002805490506113319190611ce2565b8154811061134257611341611d16565b5b906000526020600020906008020190508060070160009054906101000a900460ff16156113a4576040517f08c379a000000000000000000000000000000000000000000000000000000000815260040161139b9061246f565b60405180910390fd5b60008160020160003373ffffffffffffffffffffffffffffffffffffffff1673ffffffffffffffffffffffffffffffffffffffff1681526020019081526020016000205490506000811161142d576040517f08c379a0000000000000000000000000000000000000000000000000000000008152600401611424906124db565b60405180910390fd5b600060018261143c9190611ce2565b90508383600101828154811061145557611454611d16565b5b906000526020600020015410156114a1576040517f08c379a000000000000000000000000000000000000000000000000000000000815260040161149890612547565b60405180910390fd5b838360010182815481106114b8576114b7611d16565b5b9060005260206000200160008282546114d19190611ce2565b92505081905550838360030160008282546114ec9190611ce2565b9250508190555083600160003373ffffffffffffffffffffffffffffffffffffffff1673ffffffffffffffffffffffffffffffffffffffff16815260200190815260200160002060008282546115429190611db1565b92505081905550600083600101828154811061156157611560611d16565b5b9060005260206000200154036117c1576000600184600001805490506115879190611ce2565b9050808214611707578360000181815481106115a6576115a5611d16565b5b9060005260206000200160009054906101000a900473ffffffffffffffffffffffffffffffffffffffff168460000183815481106115e7576115e6611d16565b5b9060005260206000200160006101000a81548173ffffffffffffffffffffffffffffffffffffffff021916908373ffffffffffffffffffffffffffffffffffffffff16021790555083600101818154811061164557611644611d16565b5b906000526020600020015484600101838154811061166657611665611d16565b5b90600052602060002001819055506001826116819190611db1565b84600201600086600001858154811061169d5761169c611d16565b5b9060005260206000200160009054906101000a900473ffffffffffffffffffffffffffffffffffffffff1673ffffffffffffffffffffffffffffffffffffffff1673ffffffffffffffffffffffffffffffffffffffff168152602001908152602001600020819055505b8360000180548061171b5761171a612567565b5b6001900381819060005260206000200160006101000a81549073ffffffffffffffffffffffffffffffffffffffff021916905590558360010180548061176457611763612567565b5b600190038181906000526020600020016000905590558360020160003373ffffffffffffffffffffffffffffffffffffffff1673ffffffffffffffffffffffffffffffffffffffff16815260200190815260200160002060009055505b7fa9b16ee27e98bfd24c40b4289407e13636636ebca0ece66df90cc6d126b471b68360030154846000018054905085600001866001016040516118079493929190611fd2565b60405180910390a17f05bb376ea94bca82fc4493d7cf5e9312eafd8880e82be399c39d784121293e3660405160405180910390a150505050565b60003411611884576040517f08c379a000000000000000000000000000000000000000000000000000000000815260040161187b906125e2565b60405180910390fd5b34600160003373ffffffffffffffffffffffffffffffffffffffff1673ffffffffffffffffffffffffffffffffffffffff16815260200190815260200160002060008282546118d39190611db1565b925050819055503373ffffffffffffffffffffffffffffffffffffffff167fe1fffcc4923d04b559f4d29a8bfc6cda04eb5b0d3c460751c2402c5c5cc9109c3460405161192091906119b9565b60405180910390a2565b60016020528060005260406000206000915090505481565b600080fd5b6000819050919050565b61195a81611947565b811461196557600080fd5b50565b60008135905061197781611951565b92915050565b60006020828403121561199357611992611942565b5b60006119a184828501611968565b91505092915050565b6119b381611947565b82525050565b60006020820190506119ce60008301846119aa565b92915050565b600081519050919050565b600082825260208201905092915050565b6000819050602082019050919050565b600073ffffffffffffffffffffffffffffffffffffffff82169050919050565b6000611a2b82611a00565b9050919050565b611a3b81611a20565b82525050565b6000611a4d8383611a32565b60208301905092915050565b6000602082019050919050565b6000611a71826119d4565b611a7b81856119df565b9350611a86836119f0565b8060005b83811015611ab7578151611a9e8882611a41565b9750611aa983611a59565b925050600181019050611a8a565b5085935050505092915050565b60006020820190508181036000830152611ade8184611a66565b905092915050565b611aef81611a20565b82525050565b60008115159050919050565b611b0a81611af5565b82525050565b600060c082019050611b2560008301896119aa565b611b326020830188611ae6565b611b3f60408301876119aa565b611b4c60608301866119aa565b611b596080830185611b01565b611b6660a0830184611b01565b979650505050505050565b611b7a81611a20565b8114611b8557600080fd5b50565b600081359050611b9781611b71565b92915050565b600060208284031215611bb357611bb2611942565b5b6000611bc184828501611b88565b91505092915050565b600082825260208201905092915050565b7f496e73756666696369656e742062616c616e6365000000000000000000000000600082015250565b6000611c11601483611bca565b9150611c1c82611bdb565b602082019050919050565b60006020820190508181036000830152611c4081611c04565b9050919050565b7f4e6f206163746976652067616d652073657373696f6e73000000000000000000600082015250565b6000611c7d601783611bca565b9150611c8882611c47565b602082019050919050565b60006020820190508181036000830152611cac81611c70565b9050919050565b7f4e487b7100000000000000000000000000000000000000000000000000000000600052601160045260246000fd5b6000611ced82611947565b9150611cf883611947565b9250828203905081811115611d1057611d0f611cb3565b5b92915050565b7f4e487b7100000000000000000000000000000000000000000000000000000000600052603260045260246000fd5b7f53657373696f6e20616c726561647920636f6d706c6574656400000000000000600082015250565b6000611d7b601983611bca565b9150611d8682611d45565b602082019050919050565b60006020820190508181036000830152611daa81611d6e565b9050919050565b6000611dbc82611947565b9150611dc783611947565b9250828201905080821115611ddf57611dde611cb3565b5b92915050565b600081549050919050565b60008190508160005260206000209050919050565b60008160001c9050919050565b600073ffffffffffffffffffffffffffffffffffffffff82169050919050565b6000611e45611e4083611e05565b611e12565b9050919050565b6000611e588254611e32565b9050919050565b6000600182019050919050565b6000611e7782611de5565b611e8181856119df565b9350611e8c83611df0565b8060005b83811015611ec457611ea182611e4c565b611eab8882611a41565b9750611eb683611e5f565b925050600181019050611e90565b5085935050505092915050565b600081549050919050565b600082825260208201905092915050565b60008190508160005260206000209050919050565b611f0b81611947565b82525050565b6000611f1d8383611f02565b60208301905092915050565b6000819050919050565b6000611f46611f4183611e05565b611f29565b9050919050565b6000611f598254611f33565b9050919050565b6000600182019050919050565b6000611f7882611ed1565b611f828185611edc565b9350611f8d83611eed565b8060005b83811015611fc557611fa282611f4d565b611fac8882611f11565b9750611fb783611f60565b925050600181019050611f91565b5085935050505092915050565b6000608082019050611fe760008301876119aa565b611ff460208301866119aa565b81810360408301526120068185611e6c565b9050818103606083015261201a8184611f6d565b905095945050505050565b7f4f6e6c7920746865206f776e65722063616e2063616c6c20746869732066756e60008201527f6374696f6e000000000000000000000000000000000000000000000000000000602082015250565b6000612081602583611bca565b915061208c82612025565b604082019050919050565b600060208201905081810360008301526120b081612074565b9050919050565b7f47616d65206973207374696c6c2072756e6e696e670000000000000000000000600082015250565b60006120ed601583611bca565b91506120f8826120b7565b602082019050919050565b6000602082019050818103600083015261211c816120e0565b9050919050565b7f47616d65206e6f74207374617274656400000000000000000000000000000000600082015250565b6000612159601083611bca565b915061216482612123565b602082019050919050565b600060208201905081810360008301526121888161214c565b9050919050565b7f546f74616c20706f74206973207a65726f000000000000000000000000000000600082015250565b60006121c5601183611bca565b91506121d08261218f565b602082019050919050565b600060208201905081810360008301526121f4816121b8565b9050919050565b6000819050919050565b61221661221182611947565b6121fb565b82525050565b60006122288285612205565b6020820191506122388284612205565b6020820191508190509392505050565b7f4e487b7100000000000000000000000000000000000000000000000000000000600052601260045260246000fd5b600061228282611947565b915061228d83611947565b92508261229d5761229c612248565b5b828206905092915050565b60006122b382611947565b91506122be83611947565b92508282026122cc81611947565b915082820484148315176122e3576122e2611cb3565b5b5092915050565b60006122f582611947565b915061230083611947565b9250826123105761230f612248565b5b828204905092915050565b600060408201905061233060008301856119aa565b81810360208301526123428184611e6c565b90509392505050565b7f496e73756666696369656e742066756e6473206f6e2062616c616e6365000000600082015250565b6000612381601d83611bca565b915061238c8261234b565b602082019050919050565b600060208201905081810360008301526123b081612374565b9050919050565b7f47616d652073617373696f6e206e6f74206f7665720000000000000000000000600082015250565b60006123ed601583611bca565b91506123f8826123b7565b602082019050919050565b6000602082019050818103600083015261241c816123e0565b9050919050565b7f47616d6520686173207374617274656400000000000000000000000000000000600082015250565b6000612459601083611bca565b915061246482612423565b602082019050919050565b600060208201905081810360008301526124888161244c565b9050919050565b7f596f752068617665206e6f7420706c6163656420616e79206265747300000000600082015250565b60006124c5601c83611bca565b91506124d08261248f565b602082019050919050565b600060208201905081810360008301526124f4816124b8565b9050919050565b7f496e73756666696369656e74206265742062616c616e63650000000000000000600082015250565b6000612531601883611bca565b915061253c826124fb565b602082019050919050565b6000602082019050818103600083015261256081612524565b9050919050565b7f4e487b7100000000000000000000000000000000000000000000000000000000600052603160045260246000fd5b7f4d7573742073656e642045544800000000000000000000000000000000000000600082015250565b60006125cc600d83611bca565b91506125d782612596565b602082019050919050565b600060208201905081810360008301526125fb816125bf565b905091905056fea26469706673582212202d1379037077c58cfd46c1a247d26fca65ab9c915d8c5a74057a101030020d8364736f6c63430008180033",
  "linkReferences": {},
  "deployedLinkReferences": {}
}